:02000000172BBC
:1000060083120313F801F9011030FC00710DF80D8D
:10001600F90D7408F8027508031C750FF902031828
:100026001B287408F80775080318750FF9070310DD
:0A003600F00DF10DFC0B0928080085
:0E0040008312031322088A00210882000800A0
:10004E00203083120313F0004E30F100F201F30161
:02005E00080098
:1000600083120313FB01FA01F901F801A001730DDA
:10007000F80D7408F8027508031C750FF90276086C
:10008000031C760FFA027708031C770FFB020001AE
:10009000031C0130A002F30D0730FC00730DF80DB6
:1000A000F90DFA0DFB0DA00D7408731C6928F802F8
:1000B0007508031C750FF9027608031C760FFA0207
:1000C0007708031C770FFB020001031C0130A0021C
:1000D0007A28F80775080318750FF90776080318CA
:1000E000760FFA0777080318770FFB07000103184C
:1000F0000130A007F30DFC0B4E28720DF80DF90D21
:10010000FA0DFB0DA00D7408731C9828F8027508F1
:10011000031C750FF9027608031C760FFA027708A4
:10012000031C770FFB020001031C0130A002A92869
:10013000F80775080318750FF90776080318760F86
:10014000FA0777080318770FFB070001031801303F
:10015000A007F20D0730FC00720DF80DF90DFA0D35
:10016000FB0DA00D7408721CC728F8027508031C4B
:10017000750FF9027608031C760FFA027708031C44
:10018000770FFB020001031C0130A002D828F807FA
:1001900075080318750FF90776080318760FFA0724
:1001A00077080318770FFB07000103180130A00739
:1001B000F20DFC0BAC28710DF80DF90DFA0DFB0DCD
:1001C000A00D7408721CF628F8027508031C750F40
:1001D000F9027608031C760FFA027708031C770FE2
:1001E000FB020001031C0130A0020729F807750873
:1001F0000318750FF90776080318760FFA077708C2
:100200000318770FFB07000103180130A007F10D59
:100210000730FC00710DF80DF90DFA0DFB0DA00D66
:100220007408711C2529F8027508031C750FF90262
:100230007608031C760FFA027708031C770FFB027F
:100240000001031C0130A0023629F80775080318C5
:10025000750FF90776080318760FFA077708031861
:10026000770FFB07000103180130A007F10DFC0B0D
:100270000A29700DF80DF90DFA0DFB0DA00D74088B
:10028000711C5429F8027508031C750FF9027608D1
:10029000031C760FFA027708031C770FFB0200019C
:1002A000031C0130A0026529F80775080318750FB3
:1002B000F90776080318760FFA0777080318770FFF
:1002C000FB07000103180130A007F00D0730FC0008
:1002D000700DF80DF90DFA0DFB0DA00D7408701CD2
:1002E0008329F8027508031C750FF9027608031CB0
:1002F000760FFA027708031C770FFB020001031C3C
:100300000130A0029429F80775080318750FF90742
:1003100076080318760FFA0777080318770FFB079C
:10032000000103180130A007F00DFC0B68297018BC
:10033000A7297408F80775080318750FF9077608D8
:100340000318760FFA0777080318770FFB070800E2
:10035000831203132230FC00F801F901FA01FB01BA
:10036000FC030319DE290310FB0CFA0CF90CF80C42
:10037000F30CF20CF10CF00C031CB029FC03031974
:10038000D0297408F80775080318750FF90776085F
:100390000318760FFA0777080318770FFB07B429BD
:1003A0007408F80775080318750FF907760803181D
:0E03B000760FFA0777080318770FFB0708008F
:1003BE0083120313E603E6036608003C0318EC29D8
:1003CE00E603000000000000E3290000000000002A
:0603DE0000000000080011
:1003E40020208A110A128000840AA10A0319A20A91
:0803F400F003031DF2290800CB
:1003FC002720E830F4000330F500F601F701A821BE
:10040C007008E2007108E3007208E4007308E5006C
:10041C005A08F4005B08F500F601F701302070086B
:10042C00E2007108E3007208E4007308E50070084C
:10043C00F5007108F6007208F7007308F800F80C64
:10044C00F70CF60CF50CF813F80CF70CF60CF50C85
:10045C00F8137508F0007608F1007708F2007808B8
:10046C00F300F30CF20CF10CF00CF3137008DE003B
:10047C007108DF0027205C08F4005D08F500F60128
:10048C00F701A8215E08F9005F08FA00FB01FC01E6
:10049C000330F8007908F4007A08F5007B08F600C0
:1004AC007C08F70078080319622AF40DF50DF60D97
:1004BC00F70D7410FF3E592A30207008E2007108C5
:1004CC00E3007208E4007308E5000A30F400003021
:1004DC00F5005E08F0005F08F10003207008DE00F4
:1004EC007108DF0000307102031D7E2A0330700298
:1004FC000318812ACE2A250884006508003C031DB8
:10050C00912A6408003C031D912A6308003C031DDA
:10051C00912A6208003C0318CC2A230880045F0847
:10052C000319A82AE001E10100306102031DA02A91
:10053C005F0860020318A82AE601DF21E00A03190C
:10054C00E10A9A2A5E08E600DF21240880055F088C
:10055C000319C02AE001E10100306102031DB82A31
:10056C005F0860020318C02AE601DF21E00A0319C4
:10057C00E10AB22A5E08E600DF210130E202031C28
:10058C00E302031CE402031CE502832A2408800511
:02059C00080055
:10059E0083120313FB01FA01F9018030F800F10C0C
:1005AE00F00C031CE32A7408F90775080318750F7D
:1005BE00FA070318FB0A0310F01FEB2A7408FA0758
:1005CE0075080318750FFB07FB0CFA0CF90CF80CE9
:1005DE00031CD62A7B08F3007A08F2007908F10092
:0605EE007808F00008008F
:1005F400831203135A08A5005B08F1000130F000D0
:1006040071080319092BF00D7010FF3E032B7008BD
:10061400A300F0097008A40080305A078400700811
:0A06240080058413700880050800AB
:10062E00063083120313A8000130A9000630AA0079
:10063E000130AB002630AC000130AD000630AE000C
:10064E000130AF005D30B0000130B1004A30B20071
:10065E000130B3000630B4000130B5000630B600EC
:10066E000130B7002630B8000130B9000630BA00AC
:10067E000130BB008830BC000130BD005D30BE00D3
:10068E000130BF000630C0000130C1000630C2008C
:10069E000130C3000C30C4000230C500B830C600B3
:1006AE000130C7005D30C8000130C9004A30CA00B1
:1006BE000130CB002630CC000130CD00D230CE0040
:1006CE000130CF00D230D0000130D100B830D2008E
:1006DE000130D3005D30D4000130D5008830D60013
:1006EE000130D7005D30D8000130D90001308316BB
:1006FE00A0000130A1000230A2000230A30002309F
:10070E00A4000330A5000130A6000130A70002307E
:10071E00A8000230A9000230AA000330AB0001305D
:10072E00AC000130AD000230AE000230AF0002303E
:10073E00B0000230B1000230B2000130B30001301F
:10074E00B4000230B5000230B6000230B7000330FC
:10075E00B80019308312A7000E3083169F000630A2
:10076E008312DA000430DB00FA22A60127082602E3
:10077E000318EE2B2608F000F00D70107008283EBE
:10078E0084000008DA00840A0008DB002608A03E78
:10079E0084000008F0000030F1009030F4000130C9
:1007AE00F500CF227008DC007108DD00FE21033059
:1007BE00FB008A30FC005530FD00FD0BE42BFC0BDA
:1007CE00E42BFB0BE42B00000000A60ABD2B4D30E2
:1007DE00FB001930FC004F30FD00FD0BF42BFC0B21
:0E07EE00F42BFB0BF42B00000000BC2BFD2BAA
:02400E004A2F37
:00000001FF
