:02000000732D5E
:0C000600000000000000000000000800E6
:0E001200533083120313FD00FD0B0D28080070
:10002000243083120313FC00B530FD00FD0B1628AD
:0A003000FC0B162800000000080079
:0E003A00F201F101F001F801F30100300800BD
:10004800FB14FB1F2E28FF30F300F200F100F00034
:08005800FA0DF20CFF30080064
:1000600083120313D81B3628861137288615581B90
:100070003B2806113C280615D81A4028861041282E
:100080008614581A45280610462806143A184A2895
:1000900006164B280612861603208612D8195228F7
:1000A0008611532886155819572806115828061501
:1000B000D8185C2886105D28861458186128061008
:1000C000622806143A18662806166728061286164D
:1000D000032086123A1C6E2810206F280920080081
:1000E0007B15FB1F7A280130F300F201F101F001CA
:0800F000FA0DF20CFF300800CC
:0800F800FA1FF21300300800AA
:1001000083120313FB017308031D77080319D72813
:1001100072087606FA007708F3077E30031C9428ED
:10012000F3020318DA289728F302031CDD2872086B
:10013000F8007108FC007008FD00F817F6170310AE
:10014000F201F101F0011830A0007D1CB128740803
:10015000F00775080318750FF10776080318760F76
:10016000F207F20CF10CF00CF80CFC0CFD0C031077
:10017000A00BA528F21BC128F80DF00DF10DF20D12
:10018000F3037B1B701CD328F81FD328F00A031934
:10019000F10A0319F20A031DD328F20CF10CF00C3A
:1001A000F30A0319DA28FA1FF2130030DF280130AE
:1001B0001D20DF2802302420DF28043070200000BA
:0201C000080035
:1001C200831203133A105608D80030203A1408005C
:1001D20083120313FA017308031D7A147708031DAF
:1001E200FA147A0803193529033A031900297A18EF
:1001F200FD28F61F33293129F21F312933297208CC
:100202008039FA00F21376088039F6137A06031958
:100212000E297A0803193129332977087302031941
:100222001529031C29292D297608720203191C2974
:10023200031C29292D297508710203192329031C7E
:1002420029292D29740870020319352903182D292B
:10025200FA08031933293129FA08031931293329F4
:100262000314080003100800031403150800080013
:10027200243083120313FD00FD0B3D29000008000A
:1002820083120313FD01F801700803190034740688
:10029200FA00FA1BFD09FB01F41F5129F409F40AC3
:1002A200F01F5529F009F00A70087404FA00FA1BCD
:1002B20079297408F802F00D700DF80D7408F8072A
:1002C200F00D0630FC00700DF80D74087018F8027D
:1002D200701CF807F00DFC0B6429701CF8077B18E2
:1002E2008729FD1F0034F009F00AF809F80A0034E2
:1002F200F41F8429F01B81297008F800F00172298B
:10030200F001F00A0034F009FB0A5A29F80A7408CD
:100312007802031D7229F801F00AF01F7229FF34D6
:020322000800D1
:0E0324008312031339088A003808820008008B
:10033200A0017208031DAE297108F2007008F100D5
:10034200F001A0157208031DAE297108F200F10137
:10035200A011201672080319BC292008F302031DFC
:10036200031CC0290310F21BC429F00DF10DF20D7C
:10037200F30BB429C0290130FC001D20C72902302B
:0E038200FC007020C7290430FC007C2008001D
:10039000831203135608F2007208F100F20A57089C
:1003A000F000D70A700884000008F000710884008B
:1003B000700880007108840000080319E029CC2926
:0603C0005608F0000800E1
:0603C600FB15FF300800EA
:1003CC0083120313D401D5014908D0004A08D10087
:1003DC004B08D2004C08D3005308FF3A031D002AE7
:1003EC005208FF3A031D002A5108FF3A031D002A48
:1003FC005008FF3A031D0A2A4D08D6002330D700B7
:10040C00C8210330F000E32B0130CE00D21F192A93
:10041C0080305206F0007008D200CE0A4D088400DD
:10042C002D308000CD0A0030F0005306031D282A21
:10043C0070085206031D282A70085106031D282A2D
:10044C005008003A031D312A4D08D6002130D70040
:10045C00C821F001E32B5308FF3A031D3F2A520831
:10046C00003A031D3F2A5108003A031D3F2A500849
:10047C00003A031D492A4D08D6002830D700C82160
:10048C004E08F000E32B0030F4000030F500003093
:10049C00F6007F30F7005008F0005108F1005208C8
:1004AC00F2005308F300E920013003180030F0008B
:1004BC00700803197C2A5008F0005108F10052080A
:1004CC00F2005308F3000030F4000030F500203047
:1004DC00F6008230F70080207008D0007108D1003F
:1004EC007208D2007308D300D503492A0030F400F7
:1004FC000030F5002030F6008230F7005008F00094
:10050C005108F1005208F2005308F300E9200130C1
:10051C00031C0030F00070080319AF2A5008F000DB
:10052C005108F1005208F2005308F300CD30F400EA
:10053C00CC30F5004C30F6007B30F7008020700892
:10054C00D0007108D1007208D2007308D300D50A0C
:10055C007C2AFF305005F800FF305105F9007F3040
:10056C005205FA0000305305FB007808F4007908B6
:10057C00F5007A08F6007B08F700F40DF50DF60D82
:10058C00F70D741000305005F00000305105F100EB
:10059C0000305205F200FF305305F3007008D00014
:1005AC007108D1007208D2007308D300740850048B
:1005BC00F00075085104F10076085204F200770837
:1005CC005304F3007008D0007108D1007208D200F7
:1005DC007308D3007F305302F0007008CF00013055
:1005EC00D3007008F4005008F0005108F1005208D4
:1005FC00F2005308F300740803190B2BF00DF10DE6
:10060C00F20DF30D7010FF3E022B7008D000710834
:10061C00D1007208D2007308D3005308303EF000AA
:10062C004D08840070088000CD0A80305506F0001B
:10063C008030013A7002031C2C2B8030063AF000FB
:10064C00803055067002031C2C2B332B4D08840074
:10065C002E308000CD0A0130D4000630CF004F0878
:10066C00003A0319912BD3015008F0005108F10006
:10067C005208F2005308F300F00DF10DF20DF30DDA
:10068C007010F00DF10DF20DF30D70105008F00715
:10069C0051080318510FF10752080318520FF207B3
:1006AC0053080318530FF3077008D0007108D100DA
:1006BC007208D2007308D3005008F0005108F10002
:1006CC005208F2005308F300F00DF10DF20DF30D8A
:1006DC0070107008D0007108D1007208D200730835
:1006EC00D3005308303EF0004D08840070088000A1
:1006FC00CD0A5408003A031D8F2BD5035508003A38
:10070C00031D8F2B4D0884002E308000CD0A013044
:10071C00D400CF03352BFF304D0784000008303A4E
:10072C00031D9A2BCD03912BFF304D07840000083D
:10073C002E3A031DA22BCD035508003A0319DF2BCB
:10074C004D08840065308000CD0A80305506F000DD
:10075C008030003A70020318BB2B4D0884002D30FA
:10076C008000CD0A5508003CD5005508CF008030DC
:10077C00093AF0008030550670020318D12B0A306C
:10078C00F4004F08F00041213030F0074D08840090
:10079C0070088000CD0A0A30F4004F08F0004121A7
:1007AC007808F0003030F0074D08840070088000A5
:0C07BC00CD0A4D0884008001F001080007
:1007C800831203139F01C0309F042709F0007008AB
:1007D80083169F051F179F1783124908F000F00D15
:1007E8007010F00D7010F00D701070089F041F1439
:1007F80039211F151F1D022C0000FE2B1F101E087B
:10080800F100F00183161E08F0040030F10408001E
:10081800831203137008F8007108F000F101F20167
:10082800F301FB01FC019630F300FA017008F100B6
:0C0838007808F000F801F2019921080096
:10084400831203137408003A031D3D2C7508003A03
:10085400031D3D2C7608003A031D3D2C7708003A11
:10086400031D3D2CFF30F000FF30F1007F30F2001B
:10087400FF30F300D82C8312031377080319CC2C10
:1008840073080319CF2C720876068039FA00F21720
:10089400F617A0017208F8007108FC007008FD004A
:1008A4007408FD027508031C750FFC027608031C0E
:1008B400760FF802F801FC01FD01031C682C0310FB
:1008C400F20CF10CF00CF80C0130A0007708F302E4
:1008D400031C722C7E302007F3070318D22C772CCC
:1008E4007E302007F307031CD52C1830FA07FD0DC2
:1008F400FC0DF80DF00DF10DF20DA00D7408F002D1
:100904007508031C750FF1027608031C760FF202BA
:10091400760DA004201C902C7D149B2C7408F007E9
:1009240075080318750FF10776080318760AF2079D
:100934007D10FA031F307A05031D792C7B1B7D1C67
:10094400C22C0310F00DF10DF20DA00D7408F0028D
:100954007508031C750FF1027608031C760FF2026A
:10096400760D20040139FD070318FC0A0319F80A5F
:10097400031DC22CF80CFC0CFD0CF30A0319D22C39
:10098400FA1FF8137808F2007C08F1007D08F000E3
:100994000030D72C0130E321D72C02301D20D72C76
:0E09A40004302420D72C0830702000000800FA
:1009B200831603138612061206108610061186117C
:1009C2008312861206128611061186100610102056
:1009D200102010208614061486160320861210207A
:1009E20086160320861210208616032086121020F7
:1009F2000610861603208612102086160320861201
:100A0200861086158616032086121020861106147B
:100A120086160320861206108616032086121020E0
:100A220086160320861206148616032086121020CC
:100A320006108616032086128615061586140614DD
:0C0A420086160320861210203A140800CB
:100A4E00392D803083120313C9004C2DC030C900DC
:100A5E004C2D9430C9004C2DD430C9004C2D803013
:100A6E00C9004C2D831203134908013A0319282D8E
:100A7E004908023A03192D2D4908033A0319302D5E
:100A8E004908043A0319332D362D4A03F00049085C
:100A9E00F0077008C9007008D80030203A10CC0159
:100AAE004C084B07840000080319652D4C084B07B2
:100ABE0084000008D600E120CC0A572D3A14080015
:100ACE0092218A110A128000840AB80A0319B90AFF
:080ADE00F003031D672D080061
:100AE600E2250E30831603139F000514D924013026
:100AF600D80030200C30D80030200130C900013039
:100B0600CA002C30CB002725C901E4230C24003071
:100B1600F4004030F5001C30F6008B30F7008020E2
:100B26000030F4000030F5000030F6008930F700A0
:100B360022240030F4000030F5002030F600823028
:100B4600F70022247008C9007108CA007208CB0099
:100B56007308CC003B30CD00E6210230C9000130DD
:100B6600CA003B30CB0027250D30FB00AF30FC0020
:100B7600B630FD00FD0BBD2DFC0BBD2DFB0BBD2DB9
:060B86000000872DC52DC3
:100BC40021308400173083120313F000CB30B800B7
:080BD4000530B9006725080097
:040B960030340034C3
:080B9A004E3461344E34003486
:020BA2000F340E
:080BA40049344E34463400349C
:100BAC00543465346D347034653472346134743457
:080BBC00753472346534003415
:02400E004A2F37
:00000001FF
