:1000000016EF03F00000000000EF00F00000000019
:0A0010000000000000000000F3D71C
:10001C00220E0C6E086A096A0A6A0B6A0C06D8B4BE
:10002C001FD0D8900B320A32093208320332023216
:10003C0001320032D8A0F2D70C06D8B409D0045043
:10004C0008260550092206500A2207500B22EAD72F
:10005C00045008260550092206500A2207500B228C
:02006C00120080
:10006E00200E006E4E0E016E000E026E036E12001A
:0C007E0000000000000000000000120064
:10008A005006500650C001F050060150000803E225
:10009A0000000000F7D70000000000000000000088
:0200AA00120042
:1000AC00086A096A100E0C6E0134083609360450C1
:1000BC00085E0550D8A0053C095ED8B007D00450A6
:1000CC0008260550D8B0053C0926D89000360136D4
:0600DC000C2EEAD7120011
:1000E2000B6A0A6A096A086A0E6A033408360450FF
:1000F200085E0550D8A0053C095E0650D8A0063C13
:100102000A5E0750D8A0073C0B5EE86AD8A0010E31
:100112000E5E0336070E0C6E0334083609360A36B5
:100122000B360E36045003A012D0085E0550D8A03C
:10013200053C095E0650D8A0063C0A5E0750D8A0CE
:10014200073C0B5EE86AD8A0010E0E5E11D00826AD
:100152000550D8B0053C09260650D8B0063C0A2600
:100162000750D8B0073C0B26E86AD8B0010E0E261D
:1001720003360C2ED1D70234083609360A360B362E
:100182000E36045003A012D0085E0550D8A0053CDC
:10019200095E0650D8A0063C0A5E0750D8A0073C6C
:1001A2000B5EE86AD8A0010E0E5E11D0082605503B
:1001B200D8B0053C09260650D8B0063C0A2607509E
:1001C200D8B0073C0B26E86AD8B0010E0E260236DC
:1001D200070E0C6E0234083609360A360B360E3616
:1001E200045002A012D0085E0550D8A0053C095E5A
:1001F2000650D8A0063C0A5E0750D8A0073C0B5E0A
:10020200E86AD8A0010E0E5E11D008260550D8B0BB
:10021200053C09260650D8B0063C0A260750D8B03D
:10022200073C0B26E86AD8B0010E0E2602360C2EC9
:10023200D1D70134083609360A360B360E36045049
:1002420002A012D0085E0550D8A0053C095E0650F7
:10025200D8A0063C0A5E0750D8A0073C0B5EE86AAD
:10026200D8A0010E0E5E11D008260550D8B0053C6C
:1002720009260650D8B0063C0A260750D8B0073CDB
:100282000B26E86AD8B0010E0E260136070E0C6E58
:100292000134083609360A360B360E36045001A0F0
:1002A20012D0085E0550D8A0053C095E0650D8A0C1
:1002B200063C0A5E0750D8A0073C0B5EE86AD8A04D
:1002C200010E0E5E11D008260550D8B0053C092655
:1002D2000650D8B0063C0A260750D8B0073C0B2679
:1002E200E86AD8B0010E0E2601360C2ED1D70034A2
:1002F200083609360A360B360E36045001A012D0E3
:10030200085E0550D8A0053C095E0650D8A0063C00
:100312000A5E0750D8A0073C0B5EE86AD8A0010E1F
:100322000E5E11D008260550D8B0053C09260650AD
:10033200D8B0063C0A260750D8B0073C0B26E86A1C
:10034200D8B0010E0E260036070E0C6E00340836A9
:1003520009360A360B360E36045000A012D0085E5B
:100362000550D8A0053C095E0650D8A0063C0A5E9E
:100372000750D8A0073C0B5EE86AD8A0010E0E5EBB
:1003820011D008260550D8B0053C09260650D8B031
:10039200063C0A260750D8B0073C0B26E86AD8B0BC
:1003A200010E0E2600360C2ED1D700B00ED004500E
:1003B20008260550D8B0053C09260650D8B0063CA0
:0C03C2000A260750D8B0073C0B2612009A
:1003CE00120E006E000E016E830E0024E16E0F0EF3
:0A03DE000120E26EFF0EE66E120031
:1003E8000900F5CFE6FF0006FBE10106F9E112007E
:1003F80044C041F045C042F046C001F0010E006E15
:10040800015004E000360090FF0FFBD700C040F019
:10041800001E00C03FF0120E4424E96E000E452075
:10042800EA6E0050EF16120EE95E0050EF16120049
:100438001ADEE80E046E030E056E000E066E076ED9
:10044800E9DD00C04CF001C04DF002C04EF003C021
:100458004FF044C004F045C005F0000E066E076E6C
:100468003CDE00C04CF001C04DF002C04EF003C0AD
:100478004FF000C005F001C006F002C007F003C04D
:1004880008F00832073206320532089E0832073271
:1004980006320532089E05C000F006C001F007C00C
:1004A80002F008C003F00332023201320032039E28
:1004B80000C048F001C049F0D6DD46C004F047C08E
:1004C80005F0000E066E076EA5DD48C009F049C0AC
:1004D8000AF0000E0B6E0C6E030E086E09C004F0D5
:1004E8000AC005F00BC006F00CC007F0085007E082
:1004F80004360490053606360736FF0FF8D7EDDDCB
:1005080000C04CF001C04DF002C04EF003C04FF0E7
:100518000A0E046E000E056E48C000F049C001F0D6
:10052800C1DD00C048F001C049F0000E015C02E1E5
:10053800030E005C01E241D041C0E9FF42C0EAFF7E
:100548004F50000808E14E50000805E14D500008E2
:1005580002E14C5000082FE24050EF1249520DE0E2
:100568004A6A4B6A000E4B5C02E149504A5C05E25C
:10057800506A87DD4A4A4B2AF5D748C050F081DDDA
:100588003F50EF1649520DE04A6A4B6A000E4B5C29
:1005980002E149504A5C05E2506A73DD4A4A4B2A37
:1005A800F5D748C050F06DDD010E4C5E000E4D5A77
:0C05B8004E5A4F5AC5D73F50EF161200A4
:1005C400446A466A476A100E486E040E475C29E284
:1005D400F00E836E120E006E000E016E830E002468
:1005E400E16E0F0E0120E26E481C006E00C0E6FFB3
:1005F40044DD43DD0F0E8314006E00C045F000524D
:100604000AE046C044F0455204E04532459E442A7F
:10061400FAD7040E476E48364890040E4626472AF9
:08062400D4D744C000F012001D
:10062C005FEC03F00F0EC16ECCDE820E446E0F0E2B
:10063C00456E030E466EDADEBFDF00C043F000509D
:10064C00000AFAE02F0EE96E000EEA6E4350E9261E
:10065C00D8B0EA2AEECF03F003C000F0000E016E12
:10066C00003600900136150E0024E96E000E0120B4
:10067C00EA6EEECF44F0EECF45F0F40E466E010E6E
:08068C00476ED4DED9D7FFD779
:1006BE0010EE15F02A0E006E010E016E940EF66EFF
:0E06CE00060EF76E000EF86EF4EC01F012004E
:100694000000060126014A015D018801B801EE014E
:0A06A4000C021501370172019F01DD
:1006AE00000102030004050600070809000A0B0CEE
:020000040030CA
:0D000100021F1EFF8381FF0FC00FE00F40A4
:00000001FF
