:020000002829AD
:0C000600000000000000000000000800E6
:0E001200533083120313FD00FD0B0D28080070
:10002000243083120313FC00B530FD00FD0B1628AD
:0A003000FC0B162800000000080079
:10003A0083120313D21B2328861124288615521BE8
:10004A002828061129280615D21A2D2886102E28A6
:10005A008614521A32280610332806144C183728E8
:10006A00061638280612861603208612D2193F2849
:10007A008611402886155219442806114528061566
:10008A00D218492886104A28861452184E28061073
:10009A004F2806144C18532806165428061286169A
:1000AA00032086124C1C5B2810205C2809200800BB
:1000BA00831203134C105108D2001D204C1408005F
:0E00CA00831203134B088A004A0882000800C4
:1000D800831603138612061206108610061186115F
:1000E8008312861206128611061186100610102039
:1000F800102010208614061486160320861210205D
:1001080086160320861210208616032086121020D9
:1001180006108616032086121020861603208612E3
:10012800861086158616032086121020861106145E
:1001380086160320861206108616032086121020C3
:1001480086160320861206148616032086121020AF
:1001580006108616032086128615061586140614C0
:0C01680086160320861210204C1408009C
:0E0174000030831203138C1A0130F0000800D3
:10018200831203131A08F100981CC92818121816B2
:060192007108F0000800F6
:1001980083160313981690308312980083168717D6
:1001A800071383128C1EDB281A08F000D5280800D4
:1001B80065208A110A128000840ACA0A0319CB0A28
:0801C800F003031DDC28080010
:1001D000FA28803083120313CD000D29C030CD00E2
:1001E0000D299430CD000D29D430CD000D2980305B
:1001F000CD000D29831203134D08013A0319E92894
:100200004D08023A0319EE284D08033A0319F12864
:100210004D08043A0319F428F7284E03F0004D085E
:10022000F0077008CD007008D2001D204C10D001DE
:1002300050084F07840000080319262950084F076B
:1002400084000008D1005D20D00A18294C14080051
:10025000EE210E30831603139F006C200130D20074
:100260001D200C30D2001D200130CD000130CE0009
:100270003C30CF00E8203330FB00BB30FC00DF30E7
:10028000FD00FD0B4129FC0B4129FB0B412900001E
:1002900000000130D2001D20831687170717813018
:1002A00099001815CC200330FB008A30FC00553033
:1002B000FD00FD0B5929FC0B5929FB0B59290000A6
:1002C0000000BA20700803196829C1207008BB001B
:1002D0003B08313A031D84290130CD000130CE00A6
:1002E0002930CF00E8204D30FB001930FC004F30A2
:1002F000FD00FD0B7929FC0B7929FB0B7929000006
:1003000000000130D2001D203B08323A031DA02915
:100310000130CD000130CE002030CF00E8204D303C
:10032000FB001930FC004F30FD00FD0B9529FC0B44
:100330009529FB0B9529000000000130D2001D20FB
:100340003B08333A031DBC290130CD000130CE00FB
:100350003230CF00E8204D30FB001930FC004F3028
:10036000FD00FD0BB129FC0BB129FB0BB1290000ED
:0E03700000000130D2001D20BB016129BE2912
:1003DC00203084002A3083120313F000C430CA008A
:0803EC000130CB00DC20080009
:100388004E3475346D34623465347234203432340A
:0203980000342F
:10039A004E3475346D3462346534723420343134F9
:0203AA0000341D
:1003AC004E3475346D3462346534723420343334E5
:0203BC0000340B
:0203BE00003409
:1003C0004D34613474346C346134623420347334A9
:0C03D00065347234693461346C340034DC
:02400E004A2F37
:00000001FF
