:0200000087294E
:0C000600000000000000000000000800E6
:0E001200533083120313FD00FD0B0D28080070
:10002000243083120313FC00B530FD00FD0B1628AD
:0A003000FC0B162800000000080079
:10003A0083120313C71B2328861124288615471BFE
:10004A002828061129280615C71A2D2886102E28B1
:10005A008614471A32280610332806143D18372802
:10006A00061638280612861603208612C7193F2854
:10007A008611402886154719442806114528061571
:10008A00C718492886104A28861447184E28061089
:10009A004F2806143D1853280616542806128616A9
:1000AA00032086123D1C5B2810205C2809200800CA
:0E00BA00831203133F088A003E0882000800EC
:1000C8007628803083120313C4008928C030C40006
:1000D80089289430C4008928D430C4008928803005
:1000E800C4008928831203134408013A03196528B8
:1000F8004408023A03196A284408033A03196D2888
:100108004408043A0319702873284503F00044088A
:10011800F0077008C4003D147008C7001D203D108A
:0A0128004608C7001D203D14080022
:10013200831203133D104408C7001D203D1408001C
:10014200403083120313C7001D20C2014208073C3E
:10015200031CBD284208FF3EF00001300318013E97
:10016200F1007008BE007108BF005D208A110A12FA
:10017200C4009920C20AA7280230C7001D204008E7
:0C018200C4004108C500C601642008004C
:10018E00D928803083120313C000EC28C030C00081
:10019E00EC289430C000EC28D430C000EC2880301D
:1001AE00C000EC28831203134008013A0319C82833
:1001BE004008023A0319CD284008033A0319D02803
:1001CE004008043A0319D328D6284103F00040080A
:1001DE00F0077008C0007008C7001D203D10C30155
:1001EE004308420784000008031905294308420703
:1001FE0084000008C4009920C30AF7283D140800A3
:10020E00403083120313C7001D20C2014208073C71
:10021E00031C23294208073EF00002300318013E5A
:10022E00F1007008BE007108BF005D208A110A122D
:10023E00C4009920C20A0D290230C7001D204008B3
:0C024E00C4004108C500C601642008007F
:10025A0083160313861206120610861006118611DB
:10026A0083128612061286110611861006101020B5
:10027A0010201020861406148616032086121020D9
:10028A008616032086121020861603208612102056
:10029A000610861603208612102086160320861260
:1002AA0086108615861603208612102086110614DB
:1002BA008616032086120610861603208612102040
:1002CA00861603208612061486160320861210202C
:1002DA00061086160320861286150615861406143D
:0C02EA0086160320861210203D14080028
:1002F6005D208A110A128000840ABE0A0319BF0A09
:08030600F003031D7B29080030
:10030E00633083120313A0006130A1006E30A2008F
:10031E002730A3007430A4002030A5006230A60060
:10032E006530A7002030A8006D30A9006F30AA00FC
:10033E007630AB006530AC006430AD002030AE00DE
:10034E00AF015430B0006830B1006530B2002030DB
:10035E00B3006D30B4006130B5006E30B6002030A1
:10036E00B7007730B8006830B9006F30BA0020306F
:10037E00BB00BC010E3083169F002D210130C7003B
:10038E001D200C30C7001D200130C0000130C100FF
:10039E003030C200C7200230C0000130C100203012
:1003AE00C200C7200230C0001030C10007210D303E
:1003BE00FB00AF30FC00B630FD00FD0BE429FC0B5A
:1003CE00E429FB0BE42900000230C0001030C1000C
:1003DE00A1200D30FB00AF30FC00B630FD00FD0B50
:1003EE00F629FC0BF629FB0BF6290000D929FE296C
:1003FE000E3415340E3404340D340C3412340934E6
:10040E000E3415340E3404340E34153404340A34D8
:02400E004A2F37
:00000001FF
