:0200000058287E
:10000600831603139818092800000328831237085B
:040016009900080045
:0E001A008312031332088A00310882000800A6
:100028008316031398169030831298008316871747
:10003800071383128C1E23281A08F0001D280800B5
:1000480083120313B601340884000008B50035088C
:10005800003A031939283508B7000320B60A3608CC
:0C006800340784000008B5002B280800B5
:100074000D208A110A128000840AB10A0319B20AF7
:08008400F003031D3A280800F7
:0E008C000030831203138C1A0130F0000800BC
:10009A00831203131A08F100981C5528181218160F
:0600AA007108F0000800DF
:1000B000443083120313A0006530A1007330A20006
:1000C0006C30A3006930A4006730A5006130A60041
:1000D0006430A7006F30A800A9014C30AA00693035
:1000E000AB006730AC006130AD006430AE006F3003
:1000F000AF00B001613083168F0003178801023012
:1001000089001F3086000313071185108230FC0020
:10011000DD30FD00FD0B8A28FC0B8A280000000062
:1001200067309900181514208514B3014620700813
:10013000013A031D9E284D207008B3003308013A90
:10014000031DB32802308506851CAA282030B40080
:100150002420AD282A30B40024200D30B70003201D
:0C0160000A30B7000320B3019628B52830
:04400E00F42F000784
:00000001FF
