:10000000DDEF03F00000000000EF00F00000000052
:0A0010000000000000000000F3D71C
:0C001C00420E0D6E0D2EFED700001200EB
:100028001D0E0C6E910E0D6E0D2EFED70C2EFCD7EC
:020038001200B4
:0A003A0000000000000000001200AA
:100044000B6A0A6A096A086A0E6A0334083604509D
:10005400085E0550D8A0053C095E0650D8A0063CB1
:100064000A5E0750D8A0073C0B5EE86AD8A0010ED0
:100074000E5E0336070E0C6E0334083609360A3654
:100084000B360E36045003A012D0085E0550D8A0DB
:10009400053C095E0650D8A0063C0A5E0750D8A06D
:1000A400073C0B5EE86AD8A0010E0E5E11D008264C
:1000B4000550D8B0053C09260650D8B0063C0A269F
:1000C4000750D8B0073C0B26E86AD8B0010E0E26BC
:1000D40003360C2ED1D70234083609360A360B36CD
:1000E4000E36045003A012D0085E0550D8A0053C7B
:1000F400095E0650D8A0063C0A5E0750D8A0073C0B
:100104000B5EE86AD8A0010E0E5E11D008260550D9
:10011400D8B0053C09260650D8B0063C0A2607503C
:10012400D8B0073C0B26E86AD8B0010E0E2602367A
:10013400070E0C6E0234083609360A360B360E36B4
:10014400045002A012D0085E0550D8A0053C095EF8
:100154000650D8A0063C0A5E0750D8A0073C0B5EA8
:10016400E86AD8A0010E0E5E11D008260550D8B05A
:10017400053C09260650D8B0063C0A260750D8B0DC
:10018400073C0B26E86AD8B0010E0E2602360C2E68
:10019400D1D70134083609360A360B360E360450E8
:1001A40002A012D0085E0550D8A0053C095E065096
:1001B400D8A0063C0A5E0750D8A0073C0B5EE86A4C
:1001C400D8A0010E0E5E11D008260550D8B0053C0B
:1001D40009260650D8B0063C0A260750D8B0073C7A
:1001E4000B26E86AD8B0010E0E260136070E0C6EF7
:1001F4000134083609360A360B360E36045001A08F
:1002040012D0085E0550D8A0053C095E0650D8A05F
:10021400063C0A5E0750D8A0073C0B5EE86AD8A0EB
:10022400010E0E5E11D008260550D8B0053C0926F3
:100234000650D8B0063C0A260750D8B0073C0B2617
:10024400E86AD8B0010E0E2601360C2ED1D7003440
:10025400083609360A360B360E36045001A012D081
:10026400085E0550D8A0053C095E0650D8A0063C9F
:100274000A5E0750D8A0073C0B5EE86AD8A0010EBE
:100284000E5E11D008260550D8B0053C092606504C
:10029400D8B0063C0A260750D8B0073C0B26E86ABB
:1002A400D8B0010E0E260036070E0C6E0034083648
:1002B40009360A360B360E36045000A012D0085EFA
:1002C4000550D8A0053C095E0650D8A0063C0A5E3D
:1002D4000750D8A0073C0B5EE86AD8A0010E0E5E5A
:1002E40011D008260550D8B0053C09260650D8B0D0
:1002F400063C0A260750D8B0073C0B26E86AD8B05B
:10030400010E0E2600360C2ED1D700B00ED00450AC
:1003140008260550D8B0053C09260650D8B0063C3E
:0C0324000A260750D8B0073C0B26120038
:100330004FBE02D0819601D081864FBC02D08194FD
:1003400001D081844FBA02D0819201D081824FB80E
:1003500002D0819001D0818026B002D0818801D066
:100360008198818A6ADE819A4FB602D0819601D047
:1003700081864FB402D0819401D081844FB202D0E3
:10038000819201D081824FB002D0819001D08180D2
:1003900026B002D0818801D08198818A4EDE819A70
:0C03A00026A002D041DE01D039DE1200A0
:1003AC004B6A4C6A000E4C5C02E10A0E4B5C0BE291
:1003BC004B504924E16E4C504A20E26E200EE66E02
:1003CC004B4A4C2AEFD74B504924E16E4C504A20F3
:1003DC00E26EE66A010E4B5E000E4C5A4B504924FD
:1003EC004D6E4C504A204E6E0A0E046E000E056E79
:1003FC00066E076E45C000F046C001F047C002F023
:10040C0048C003F019DE08C000F009C001F00AC0B2
:10041C0002F00BC003F0300E00264DC0E1FF4EC0C1
:10042C00E2FF00C0E6FF0A0E046E000E056E066EBB
:10043C00076E45C000F046C001F047C002F048C04E
:10044C0003F0FADD00C045F001C046F002C047F0F1
:10045C0003C048F0000E046E031808E104500218A3
:10046C0005E10450011802E10050000A01E105D039
:0C047C00010E4B5E000E4C5AB1D712006E
:0C048800269045C04FF050DF2680120087
:0A0494001D0E0D6E0D2EFED7120096
:10049E000900F5CFE6FF0006FBE10106F9E11200C7
:1004AE00939A93989390939293949396819A81981A
:1004BE008196819481928190B0DDAFDDAEDD818237
:1004CE008180818AB3DD819AA8DD818AAFDD819A30
:1004DE00A4DD818AABDD819AA0DD8190818AA6DDC3
:1004EE00819A9BDD818AA2DD819A81928186818AA1
:1004FE009DDD819A92DD81968180818A97DD819A38
:10050E008190818A93DD819A88DD818A8FDD819A3F
:10051E008180818A8BDD819A80DD8190818A86DD62
:10052E00819A8186818481828180818A7FDD819A10
:06053E0074DD26801200AE
:100544000FD0800E376E19D0C00E376E16D0940EB1
:10055400376E13D0D40E376E10D0800E376E0DD098
:100564003750010AEEE03750020AEEE03750030A32
:10057400EEE03750040AEEE0F0D73804006E37504E
:10058400002600C037F000C04FF0D0DE26903B6A52
:100594003B503924E96E000E3A20EA6EEE520BE02D
:1005A4003B503924E96E000E3A20EA6EEECF45F056
:0A05B40069DF3B2AEDD72680120014
:1005BE00220E0C6E086A096A0A6A0B6A0C06D8B417
:1005CE001FD0D8900B320A3209320832033202326F
:1005DE0001320032D8A0F2D70C06D8B409D004509C
:1005EE0008260550092206500A2207500B22EAD788
:1005FE00045008260550092206500A2207500B22E5
:02060E001200D8
:100610003F6A406A37C041F038C042F039C043F009
:100620003AC044F0800E3A18006E800E005C08E17B
:10063000000E395C05E1000E385C02E1000E375C0B
:1006400010E2010E3F6E000E406E416A426A436A3C
:10065000446A3750415E3850425A3950435A3A50F2
:10066000445A41C045F042C046F043C047F044C040
:1006700048F03BC049F03CC04AF098DE0B0E3D6E9E
:10068000000E3E6E000E006E3E50005C02E13D50DA
:10069000000819E23D503B24E16E3E503C20E26EE2
:1006A000010E3D5C006E000E3E58016E00503B2472
:1006B000E96E01503C20EA6EEECFE6FF010E3D5E92
:1006C000000E3E5ADFD73BC0E1FF3CC0E2FF200EE8
:1006D000E66E3F5040101AE03D6A3E6A3D503B24B2
:1006E000E96E3E503C20EA6EEE50200A03E13D4A9E
:1006F0003E2AF4D7010E3D5E000E3E5A3D503B248B
:0E070000E16E3E503C20E26E2D0EE66E1200C1
:10070E00396A3A6A37C003F038C004F037C005F0D2
:10071E0038C006F003C0E9FF04C0EAFFEE50200A1D
:10072E0004E139503A1001E110D0010E396E000E7D
:10073E003A6E03C0E9FF04C0EAFF05C0E1FF06C040
:10074E00E2FFEECFE6FF054A062A03C001F004C021
:10075E0002F0034A042A01C0E9FF02C0EAFFEE508C
:0E076E00000AD8E137C000F038C001F01200D8
:10077C00C26A251C006E0050C116070EC012C08E36
:10078C0037C000F000360090003600900050C212C6
:10079C00C2807ADEC282C2A201D0FDD7C4CF01F0E2
:0E07AC00006AC3500012000E0112C29012002B
:1007BA006EEC04F0C00E936E0E0EC16E9280800E27
:1007CA00C06E70DE010E4F6EAEDD0C0E4F6EABDDED
:1007DA00010E376E010E386E1B0E396E000E3A6E20
:1007EA00ACDE290E0B6E960E0C6E7F0E0D6E0D2E64
:1007FA00FED70C2EFCD70B2EFAD7010E4F6E93DDC7
:10080A00376AB7DF00C027F001C028F0000E296E52
:10081A002A6E27C000F028C001F029C002F02AC0C1
:10082A0003F0840E046E120E056E000E066E076E3D
:10083A00C1DE0A0E046E00C027F001C028F002C013
:10084A0029F003C02AF0045007E02A32293228325C
:10085A0027322A9EFF0FF8D7010E376E010E386E27
:10086A00150E396E000E3A6E68DE27C037F028C0C2
:10087A0038F029C039F02AC03AF02B0E3B6E000E30
:10088A003C6EC1DE2B0E376E000E386E3BDF010E5A
:10089A00376E060E386E00C039F001C03AF04DDEF0
:1008AA000B0E0B6E260E0C6E5D0E0D6E0D2EFED708
:1008BA000C2EFCD70B2EFAD7000000009ED7FFD7CC
:1008DC0010EE15F0110E006E010E016ECA0EF66EC2
:0E08EC00080EF76E000EF86E4FEC02F01200D0
:0608CA006D56203D2000E8
:0A08D000564F4C544D45544552005C
:0108DA0030ED
:020000040030CA
:0D000100021F1EFF8381FF0FC00FE00F40A4
:00000001FF
