:040000008A15182A1B
:0C000600000000000000000000000800E6
:10001200243083120313FC00B530FD00FD0B0F28C2
:0A002200FC0B0F280000000008008E
:0E002C00533083120313FD00FD0B1A28080049
:10003A007B15FB1F27280130F300F201F101F001C3
:08004A00FA0DF20CFF30080072
:08005200FA1FF2130030080050
:10005A00FB14FB1F3728FF30F300F200F100F00019
:08006A00FA0DF20CFF30080052
:0E007200F201F101F001F801F3010030080085
:0E0080008316031335088A0034088200080036
:10008E00A0017208031D5C287108F2007008F100CF
:10009E00F001A0157208031D5C287108F200F10131
:1000AE00A0112016720803196A282008F302031DF6
:1000BE00031C6E280310F21B7228F00DF10DF20DC9
:1000CE00F30B62286E280130FC00392075280230AF
:0E00DE00FC001D2075280430FC0029200800BD
:1000EC0083160313D41B7D28831286117F28831259
:1000FC0086158316541B85288312061187288312B4
:10010C0006158316D41A8D28831286108F28831215
:10011C0086148316541A9528831206109728831276
:10012C0006146F189B2806169C28061286160320A8
:10013C0086128316D419A52883128611A728831238
:10014C00861583165419AD2883120611AF28831215
:10015C0006158316D418B52883128610B728831277
:10016C00861483165418BD2883120610BF288312D8
:10017C0006146F18C3280616C42806128616032008
:0E018C0086126F1CCB280920CC2816200800F4
:10019A007C180329FC18D4287C192229CD28A0010F
:1001AA007208031DF4287108F2007008F10078083B
:1001BA00F000F801A0157208031DF4287108F20076
:1001CA007008F100F001A01120167208031DF4282E
:1001DA007108F200F101A015720803191629200806
:1001EA00F302031D031C1A290310F21B0329F80D3D
:1001FA00F00DF10DF20DF30BFA281A297B1B701C76
:10020A001E29F81F1E29F00A0319F10A0319F20A16
:10021A00031D1E29F20CF10CF00CF30A0319222912
:10022A001E290130FC00392025290230FC001D203E
:10023A0025290430FC00292025290830FC002D201E
:04024A0000000800A8
:10024E0083120313FD01F8017008031900347406BC
:10025E00FA00FA1BFD09FB01F41F3729F409F40A11
:10026E00F01F3B29F009F00A70087404FA00FA1B1B
:10027E005F297408F802F00D700DF80D7408F80778
:10028E00F00D0630FC00700DF80D74087018F802B1
:10029E00701CF807F00DFC0B4A29701CF8077B1830
:1002AE006D29FD1F0034F009F00AF809F80A003430
:1002BE00F41F6A29F01B67297008F800F00158290D
:1002CE00F001F00A0034F009FB0A4029F80A74081C
:1002DE007802031D5829F801F00AF01F5829FF343F
:0202EE00080006
:1002F0007B14FB1F8329F201FA1FFF30F200F1008B
:0A030000F000FA0DF20CFF300800C7
:10030A0083120313FB017308031D77080319DC2901
:10031A0072087606FA007708F3077E30031C9929DB
:10032A00F3020318DF299C29F302031CE22972084D
:10033A00F8007108FC007008FD00F817F6170310A2
:10034A00F201F101F0011830A0007D1CB6297408F1
:10035A00F00775080318750FF10776080318760F6A
:10036A00F207F20CF10CF00CF80CFC0CFD0C03106B
:10037A00A00BAA29F21BC629F80DF00DF10DF20DFA
:10038A00F3037B1B701CD829F81FD829F00A03191C
:10039A00F10A0319F20A031DD829F20CF10CF00C28
:1003AA00F30A0319DF29FA1FF2130030E429013096
:1003BA003920E42902302D20E42904301D200000D0
:0203CA00080029
:1003CC00243083120313FD00FD0BEA290000080002
:1003DC0083160313D201D3015208C13EF00006303C
:1003EC000318013E5307F1007008B4007108B50002
:1003FC0040208A110A12F100710851060319132AC0
:10040C00D20A0319D30A00305306031D0F2A0C30ED
:10041C005206031D122A132AF22900305306031D1B
:10042C00192A0C30520603192C2A5208CD3EF00022
:10043C0006300318013E5307F1007008B400710830
:10044C00B50040208A110A12F2002E2A4E30F2001A
:06045C007208F000080028
:100462008312031372087606A000F801F9017308DB
:100472007702031C542A7708FD007308F7007D08F1
:10048200F3007608FD007208F6007D08F200750898
:10049200FD007108F5007D08F1007408FD00700888
:1004A200F4007D08F00077080319CD2A7208FA00DB
:1004B200F217F61777087302F7000319872A083034
:1004C2007702031C7D2AF7007408F9007508F4000E
:1004D2007608F500F60108307702031C7D2AF70042
:1004E2007408F9007508F400F50108307702031C5E
:1004F2007D2A7A08F200CD2A77080319872A031089
:10050200F60CF50CF40CF90CF70B802AA01F942AB8
:10051200F909F409F509F609F90A0319F40A0319A4
:10052200F50A0319F60A7908F80774080318740F14
:10053200F00775080318750FF10776080318760F90
:10054200F207A01BAD2A031CBD2AF20CF10CF00C21
:10055200F80CF30FBD2AC92A0318C12AF809F009B9
:10056200F109F209F80A0319F00A0319F10A031949
:10057200F20A8030FA06C52A0130FC00CD20CF2ACB
:100582000230FC00CD20CF2A0430FC004720CF2AC5
:100592000830FC002D20CF2A0030FC0000000800AB
:1005A200831203136F1083165108D40076206F1440
:0205B20008003F
:1005B400831603135108F2007208F100F20A52087C
:1005C400F000D20A700884000008F000710884006A
:1005D400700880007108840000080319F22ADE2ADA
:0605E4005108F0000800C0
:0605EA00FB15FF300800C4
:1005F00083120313FA017308031D7A147708031D8D
:10060000FA147A080319442B033A03190F2B7A18AA
:100610000C2BF61F422B402BF21F402B422B720853
:100620008039FA00F21376088039F6137A06031936
:100630001D2B7A080319402B422B770873020319EC
:10064000242B031C382B3C2B7608720203192B2B0E
:10065000031C382B3C2B750871020319322B031C29
:10066000382B3C2B740870020319442B03183C2BC5
:10067000FA080319422B402BFA080319402B422B8E
:1006800003140800031008000314031508000800F1
:1006900083120313F8010830FC00700DF80D740884
:1006A000F8020318552BF8070310F00DFC0B4D2B27
:0206B000080040
:1006B20083160313C5014508440784000008031983
:1006C2006B2B4508440784000008D100D122831611
:0606D200C50A5C2B0800C4
:1006D80083160313C501C6014408F2004408F30059
:1006E800720884000008203A031D7F2B4508460441
:1006F800031D7F2B8C2B0130C5000030C60072080B
:1007080084000008F0007308840070088000F30A71
:100718007208F100F20A710884000008003A031D0B
:08072800742B4408F0000800E6
:1007300083120313FB0173080319D52B7208FA0007
:10074000F2178E30F302F31FD82BF309F30A0830A7
:100750007302031CBB2BF300F10D7208F100F201D0
:1007600008307302031CBB2BF300F10DF101730879
:10077000031D0310C32B73080319C32B0310F20CC2
:10078000F10CF30BBE2B7B1B711CCD2B031CCD2B53
:10079000F10A0319F20AF21BE42BFA1FE72BF20904
:1007A000F109F10A0319F20AE72BF201F101E72B33
:1007B0007B14FB1FEA2BF201FA1FEA2BFF30F20039
:1007C000F100FA0DF20CEA2B0130FC00EC2B0030AA
:1007D000FC00EC2BFF30FC00FC080319F02B782107
:0A07E0007108F0007208F100080033
:0C07EA00831203138030F6063122080051
:1007F600831203137008F8007108F000F101F2018A
:10080600F301FB01FC019630F300FA017008F100D8
:0C0816007808F000F801F201472008000B
:10082200831203139F01C0309F043E09F000700839
:1008320083169F051F179F174408F000F00D7010D4
:10084200F00D7010F00D7010700883129F041F14C9
:10085200E6211F151F1D2F2C00002B2C1F101E0818
:10086200F100F00183161E08F0040030F1040800C4
:1008720083160313C601033046020318472C4608A9
:100882004507840020308000C60A3C2C46084507F4
:1008920084008001C60346084507C7000A30F400F9
:1008A2004408F00048237808F0003030F00783163F
:1008B20047088400700880000A30F4004408F00001
:1008C200482370088316C4007008003A031D6A2C7E
:0808D2006C2CC6034C2C08003D
:1008DA00831203137408003A031D882C7508003A22
:1008EA00031D882C7608003A031D882C7708003AE5
:1008FA00031D882CFF30F000FF30F1007F30F2003A
:10090A00FF30F300232D8312031377080319172DE1
:10091A00730803191A2D720876068039FA00F2173D
:10092A00F617A0017208F8007108FC007008FD00B3
:10093A007408FD027508031C750FFC027608031C77
:10094A00760FF802F801FC01FD01031CB32C031019
:10095A00F20CF10CF00CF80C0130A0007708F3024D
:10096A00031CBD2C7E302007F30703181D2DC22C53
:10097A007E302007F307031C202D1830FA07FD0DDF
:10098A00FC0DF80DF00DF10DF20DA00D7408F0023A
:10099A007508031C750FF1027608031C760FF20224
:1009AA00760DA004201CDB2C7D14E62C7408F007BD
:1009BA0075080318750FF10776080318760AF20707
:1009CA007D10FA031F307A05031DC42C7B1B7D1C86
:1009DA000D2D0310F00DF10DF20DA00D7408F002AB
:1009EA007508031C750FF1027608031C760FF202D4
:1009FA00760D20040139FD070318FC0A0319F80AC9
:100A0A00031D0D2DF80CFC0CFD0CF30A03191D2D0A
:100A1A00FA1FF8137808F2007C08F1007D08F0004C
:100A2A000030222D0130F522222D02303920222DCC
:0E0A3A0004302D20222D08301D200000080061
:100A48008030831603134506F00080307002031DC2
:100A58002F2D0030440203183A2D4408003CF000C2
:100A68004508031C013EF101F1023E2D4408F00047
:060A78004508F100080032
:100A7E00512D803083160313C400642DC030C40082
:100A8E00642D9430C400642DD430C400642D8030A5
:100A9E00C400642D831603134408013A0319402D34
:100AAE004408023A0319452D4408033A0319482D08
:100ABE004408043A03194B2D4E2D4503F00044080B
:100ACE00F0077008C4007008D40076206F108316EB
:100ADE00C701470846078400000803197F2D470801
:100AEE00460784000008D100D1228316C70A702D54
:060AFE0083126F140800D2
:100B0400013083120313880070300805F100710866
:100B1400003A031D9D2D0808F000F00D70107008B8
:100B240088000F300805F1007108003A031D9C2D60
:100B340001308800862D8230FC00DD30FD00FD0B85
:100B4400A12DFC0BA12D000000007F3008058316A9
:100B5400D100EE217008C400703083120805F10042
:100B64007108003A0319B72DAE2D8230FC00DD3038
:100B7400FD00FD0BBB2DFC0BBB2D000000008316FC
:060B84004408F000080027
:100B8A0040208A110A128000840AB40A0319B50A9D
:080B9A00F003031DC52D080046
:100BA200831203137008F100F0010830FC00710891
:100BB200F40C0318E02DFC0BD92DF10100340310C5
:100BC200E52DF40C0318F107F10CF00CFC0BE22DEF
:020BD200080019
:100BD400831603134408840000084506031DF52DFD
:100BE4004408F000002E4408F000C40A7008840091
:0E0BF4000008F0007008031DEA2DF001080053
:100C02008316031386120612061086100611861129
:100C1200831286120612861106118610061009200A
:100C2200092009208614061486160320861209203C
:100C320086160320861209208616032086120920B2
:100C420006108616032086120920861603208612B5
:100C52008610861586160320861209208611061430
:100C62008616032086120610861603208612092095
:100C72008616032086120614861603208612092081
:100C8200061086160320861286150615861406148B
:0C0C920086160320861209206F1408004B
:100C9E00831203137008F800FB01FC019E30F30071
:100CAE00FA01F201F101F0010230FC00CD20080042
:100DB400213084004E3083120313F0005F30831619
:100DC400B4000630B500C525A03084001430831269
:100DD400F000AD308316B4000630B500C525080018
:1010000083160313CF01D0014408CB004508CC0060
:101010004608CD004708CE004E08FF3A031D1A28A7
:101020004D08FF3A031D1A284C08FF3A031D1A28E1
:101030004B08FF3A031D26284808D1005830D2003B
:101040008A11DA228A150330F000172A0130C9000C
:10105000CD1F352880304D06F0007008CD00C90A3C
:10106000480884002D308000C80A0030F0004E0689
:10107000031D442870084D06031D442870084C06C3
:10108000031D44284B08003A031D4F284808D1008F
:101090005C30D2008A11DA228A15F001172A4E0834
:1010A000FF3A031D5D284D08003A031D5D284C08DA
:1010B000003A031D5D284B08003A031D69284808C3
:1010C000D1005430D2008A11DA228A154908F00082
:1010D000172A0030F4000030F5000030F6007F30B1
:1010E000F7004B08F0004C08F1004D08F2004E08E4
:1010F000F3008A11F8228A15013003180030F0003D
:1011000070080319A22883164B08F0004C08F10060
:101110004D08F2004E08F3000030F4000030F500F6
:101120002030F6008230F7008A1185218A15700878
:101130008316CB007108CC007208CD007308CE0076
:10114000D003692883160030F4000030F500203009
:10115000F6008230F7004B08F0004C08F1004D0813
:10116000F2004E08F3008A11F8228A150130031CA0
:101170000030F00070080319DC2883164B08F000DB
:101180004C08F1004D08F2004E08F300CD30F40099
:10119000CC30F5004C30F6007B30F7008A11852109
:1011A0008A1570088316CB007108CC007208CD0038
:1011B0007308CE00D00AA2288316FF304B05F80032
:1011C000FF304C05F9007F304D05FA0000304E0528
:1011D000FB007808F4007908F5007A08F6007B082F
:1011E000F700F40DF50DF60DF70D741000304B05FA
:1011F000F00000304C05F10000304D05F200FF30EA
:101200004E05F3007008CB007108CC007208CD00C9
:101210007308CE0074084B04F00075084C04F1000C
:1012200076084D04F20077084E04F3007008CB00F6
:101230007108CC007208CD007308CE007F304E02DA
:10124000F0007008CA000130CE007008F4004B08AE
:10125000F0004C08F1004D08F2004E08F30074084D
:1012600003193929F00DF10DF20DF30D7010FF3E49
:1012700030297008CB007108CC007208CD007308CB
:10128000CE004E08303EF000480884007008800010
:10129000C80A80305006F0008030013A7002031C0A
:1012A0005A298030063AF000803050067002031C44
:1012B0005A296129480884002E308000C80A01306C
:1012C000CF000630CA004A08003A0319BF29CE01F0
:1012D0004B08F0004C08F1004D08F2004E08F300F6
:1012E000F00DF10DF20DF30D7010F00DF10DF20D8A
:1012F000F30D70104B08F0074C0803184C0FF10762
:101300004D0803184D0FF2074E0803184E0FF30750
:101310007008CB007108CC007208CD007308CE00B5
:101320004B08F0004C08F1004D08F2004E08F300A5
:10133000F00DF10DF20DF30D70107008CB00710877
:10134000CC007208CD007308CE004E08303EF0008D
:101350004808840070088000C80A4F08003A031D3E
:10136000BD29D0035008003A031DBD294808840058
:101370002E308000C80A0130CF00CA036329FF3035
:10138000480784000008303A031DC829C803BF2954
:10139000FF304807840000082E3A031DD029C803F7
:1013A0005008003A0319132A480884006530800069
:1013B000C80A80305006F0008030003A70020318EE
:1013C000E929480884002D308000C80A5008003CF4
:1013D000D0005008CA008030093AF0008030500632
:1013E00070020318022A0A30F4004A08F0008A1139
:1013F00027218A153030F0078316480884007008CA
:101400008000C80A0A30F4004A08F0008A11272137
:101410008A157808F0003030F007831648088400F9
:1014200070088000C80A480884008001F0010800A4
:101430008A11DA268A1583160313C3010E309F0022
:10144000F0308800091083120914F93083169200D5
:101450007D308312950083160711053083129200A8
:101460008A1101268A1501308316D4008A1176204C
:101470008A150C308316D4008A1176208A15013023
:101480008316C4000130C5002130C6008A113F25F3
:101490008A1502308316C4000130C5005E30C600D4
:1014A0008A113F258A153330FB00BB30FC00DF304A
:1014B000FD00FD0B592AFC0B592AFB0B592A000091
:1014C000000001308316D4008A1176208A1501307D
:1014D0008316C4000130C500A430C6008A113F2520
:1014E0008A1502308316C4000130C500A030C60042
:1014F0008A113F258A150F308316D4008A11762071
:101500008A158A1182258A157008B60070084E3A2D
:101510000319A32A3608233A0319A32A36082A3ABC
:101520000319A32A4308F0000A30F4008A11D125D8
:101530008A15831636087007C30030303607D1008D
:101540008A11D1228A1583163608233A031D812A6F
:101550004308003A0319812A0C30D4008A117620FE
:101560008A1501308316D4008A1176208A158316D5
:101570004308C400B730C5008A1139248A150130E8
:10158000C4000130C5003F30C6008A113F258A15CE
:10159000B7308316C4008A116C238A157008C40002
:1015A0008A1159238A15DF30D1008A11D1228A1578
:1015B00043308316D1008A11D1228A150230831656
:1015C000C4000130C5004530C6008A113F258A1588
:1015D0008A1182258A157008B6007008233A031D07
:1015E000E82A83160230C4000130C5002D30C60041
:1015F0008A113F258A158316C4018A1111248A1580
:101600008A11FB238A150030F4000030F5007A308F
:10161000F6008730F7008A1185218A150030F40022
:10162000C030F5007F30F6008830F7008A116D2455
:101630008A1570088316BF007108C0007208C100C7
:101640007308C2007008C4007108C5007208C600A3
:101650007308C700B730C8000020B730C4002E3070
:10166000C5008A11EA258A150230700784008001BE
:10167000B730C4008A116C238A150230C4000130CF
:10168000C5007008C6008A113F258A15DF30831611
:10169000D1008A11D1228A1543308316D1008A11D4
:1016A000D1228A1583164308F0008A114F268A1525
:1016B00083163F08F4004008F5004108F600420890
:1016C000F7008A11F5238A157008F4007108F500F7
:1016D0007208F6007308F7000030F0000030F100E7
:1016E0004030F2008030F3008A11F8228A15013070
:1016F00003180030F00070080319802B0910A92B83
:1017000083164308F0008A114F268A1583163F0876
:10171000F4004008F5004108F6004208F7008A117D
:10172000F5238A157008F4007108F5007208F600B8
:101730007308F700F001F101F201F3018A11F822B8
:101740008A150130031C0030F00070080319A92B22
:10175000091483164308F0008A114F268A15831650
:101760003F08F4004008F5004108F6004208F70081
:101770008A11F5238A158A1198238A157008831611
:10178000C4007108C5008A1124258A158030F20032
:10179000803071067202031DCF2B7008053C0318C0
:1017A000D52B0C3083129700D72B8312970108306A
:1017B000FB009D30FC000530FD00FD0BDD2BFC0B1C
:0E17C000DD2BFB0BDD2B00000000F12AE62BD9
:100CBE00543445344D345034453452344134543424
:080CCE00553452344534003462
:100CD600203420342034203420342034203420346E
:100CE600203420342034203420342034203420345E
:020CF6000034C8
:020CF8000F34B7
:0C0CFA005334503420343D342034003496
:100D060045344E34543445345234203474346F34BC
:0E0D1600203463346F346E3474342E34003461
:080D240049344E34463400341A
:080D2C004E3461344E340034F2
:040D34003034003423
:100D380043344F344E34543452344F344C342034CA
:100D480028344F344E342D344F3446344634293405
:020D5800003465
:080D5A00533450343A340034E4
:100D620045346E347434653472342034533465340B
:100D72007434203450346F3469346E347434003433
:100D820011342134413412342234423414342434A0
:080D92004434183428344834BD
:100D9A000134023403340434053406340734083485
:080DAA0009342A34003423341B
:02400E004A2F37
:00000001FF
