:0400000000EF05F018
:1000080000C017F001C016F002C015F0F2A407D026
:100018001C6A1D6AD59ED76AD66AF092F294F0A23D
:1000280010D0D58ED6CF1CF0000E1D6ED7CF01F0A4
:10003800006A00501C2601501D22D76AD66AF09229
:10004800F2949EA007D0010E1E26000E1F22202229
:1000580021229E9017C000F016C001F015C002F0D2
:02006800110085
:10006A000B820BAE3FEF00F003680268016800687C
:08007A000A360232FF0E1200EB
:0E008200026A016A006A086A036A000E120030
:100090000B840BAE53EF00F0010E036E026A016A8F
:0A00A000006A0A360232FF0E120059
:0800AA000AAE029E000E1200D6
:0E00B200ACB202D00000FCD76BC0ADFF120054
:1000C0006BC0C9FFC7B002D00000FCD7C9CF00F099
:0200D00012001C
:1000D2000CB0ABEF00F00CA251EF01F00E6A000E73
:1000E2000264C2EF00F0F00E0214D8A48DEF00F00B
:1000F200023A01380F0B02260138F00B016E00386C
:100102000F0B01260038F00B006E08380F0B00268B
:100112000838F00B086E0E84D89002BEA6EF00F0ED
:1001220008360036013602360E2A02BEA6EF00F06D
:1001320008360036013602360E2A02BEA6EF00F05D
:1001420008360036013602360E2A0E50036447EF97
:1001520001F0035E0BBC08AE4CEF01F0D880800EBC
:1001620008640030000E002201220222D8A04CEFC7
:1001720001F0023201320032034A51EF01F04CEF3A
:1001820001F001C002F000C001F008C000F0086AEE
:10019200000E0E860264F9EF00F0F00E0214D8A4ED
:1001A200E1EF00F0023A01380F0B02260138F00BA2
:1001B200016E00380F0B01260038F00B006E0E8422
:1001C200D89002BEA6EF00F00036013602360E2AA3
:1001D20002BEA6EF00F00036013602360E2A02BE3B
:1001E200A6EF00F00036013602360E2AA6EF00F026
:1001F20001C002F000C001F0006A000E0E960E88E7
:10020200026426EF01F0F00E0214D8A411EF01F0FF
:10021200023A01380F0B02260138F00B016E0E84F0
:10022200D89002BEA6EF00F0013602360E2A02BEB8
:10023200A6EF00F0013602360E2A02BEA6EF00F04B
:10024200013602360E2AA6EF00F001C002F0016A62
:10025200000E0E86026456EF01F0F00E0214D8A4CE
:1002620035EF01F0023A0E84D89002BEA6EF00F0FC
:1002720002360E2A02BEA6EF00F002360E2A02BE97
:10028200A6EF00F002360E2AA6EF00F0010E0C6E69
:10029200FEDE59EF01F0020E0C6E06DF59EF01F09F
:1002A200040E0C6EE1DE59EF01F0080E0C6EE8DE72
:0202B200120038
:1002B4000B800BAE66EF01F0026A0AAEFF0E026E0F
:0C02C400016E006E0A360232FF0E1200BE
:1002D000C7B409D01F0EC514016E0150000A03E116
:0A02E000010E006E01D0006A12004A
:1002EA000050086E0150006E0250016E0350026EFB
:1002FA00036A0B6A0C6A9E0E036E0A6A020E0C6E81
:04030A00E3DE12001C
:0C030E00240E0D6E0D2EFED70000120014
:10031A00086A096A000E0762036412EF02F00250CB
:10032A0006180A6E075003267E0ED8A0A3EF01F026
:10033A00035ED8B016EF02F0A7EF01F0035ED8A073
:10034A001AEF02F0028E068E02C00EF001C00BF008
:10035A0000C00DF000500402F4CF0CF00150050269
:10036A00F4CF00F0F3CF08F00402F3500C26F45057
:10037A000822000E00220D500502F3500C26F450FC
:10038A000822000E002202500402F3500826F450FC
:10039A00002202500502016A000E0122F3500026D3
:1003AA00F45001220D500602F3500826F4500022A0
:1003BA00026A000E012202220B500602F3500026A6
:1003CA00F4500122000E02220E500602F3500126BA
:1003DA00F450022202BEFAEF01F008360036013666
:1003EA0002360306D8B41AEF02F00DEF02F0D880F5
:1003FA00800E08640030000E002201220222D8A0DA
:10040A000DEF02F0023201320032034A16EF02F017
:10041A000AAE029E000E1CEF02F0010E2DDE1CEF4A
:10042A0002F0020E1DDE1CEF02F0040E2CDE12009A
:10043A000B6A0C6A0A6A086A0350D8B4A5EF02F07C
:10044A00028E9E0E035E03BE30EF02F0D8B430EF88
:10045A0002F095EF02F0036C080E035CD8A062EF7D
:10046A0002F0036E083600C008F001C000F002C0B6
:10047A0001F0026A080E035CD8A062EF02F0036E74
:10048A00083600C008F001C000F0016A080E035CDB
:10049A00D8A062EF02F0036E083600C008F0006AC6
:1004AA00080E035CD8A062EF02F0036E0836086AF1
:1004BA000350D8A4D8906EEF02F00350D8B46EEF70
:1004CA0002F0D8900232013200320832032E66EF6F
:1004DA0002F00BBC08A07FEF02F0D8A07FEF02F079
:1004EA00082AD8B4002AD8B4012AD8B4022A02BEEB
:1004FA00A9EF02F00AAEA5EF02F0021E011E001ECD
:10050A00081E082AD8B4002AD8B4012AD8B4022A64
:10051A00A5EF02F0026A016A006A086AA5EF02F012
:10052A000B800BAEAEEF02F0026A0AAEAEEF02F03B
:10053A00026E016E006E086E0A360232AEEF02F0EB
:10054A00000E0C6AAFEF02F0010E0C6EAEDEAFEFDA
:10055A0002F0FF0E0250036E0150026E0050016E4F
:06056A000850006E1200B3
:10057000F250026EF29E0500FF6A0150FE6E0050BE
:08058000FD6E02BEF28E1200B6
:10058800FF0E2F6EFF0E306EFF0E316EFF0E326EB5
:10059800C26A221C006E0050C116070EC012C08E1F
:0405A800C2801200FB
:1005AC000900F5CFE6FF0006FBE10106F9E11200B8
:1005BC00D00E2B6E020E2C6E000E2D6E000E2E6EBB
:1005CC00880E276E060E286E000E296E000E2A6EFF
:1005DC00AA0E476E090E486E000E496E000E4A6E4A
:1005EC00200E436E080E446E600E456E000E466E75
:1005FC00E40E4F6E080E506E600E516E000E526E71
:10060C00A60E4B6E090E4C6E000E4D6E000E4E6E0D
:10061C00939093928A908A9293809382C79EC79C60
:06062C00380EC66E12003C
:10063200B20E376E000E386E6B0E396E000E3A6EC9
:10064200FF0E336EFF0E346E000E356E000E366EE8
:10065200FF0E3F6EFF0E406E000E416E000E426EA8
:10066200FF0E3B6EFF0E3C6E000E3D6E000E3E6EA8
:10067200AC8A900EAB6E948E949C9EAA03D0AECFA1
:0606820000F0FBD712009E
:1006880018C067F019C068F01AC069F01BC06AF09A
:100698000001656B666B6651120802E165518E08B0
:1006A80008E312DE005201E004D00001654B662B1E
:1006B800F2D70001120E665D02E18F0E655D03E35D
:1006C8007B0E006E24D0C580C5A020D0185019100C
:1006D8001A101B101AE06751681169116A110EE1AE
:1006E80025C0E1FF26C0E2FF050EE66E23C000F03C
:1006F80024C001F039DF010E006E09D0010E00019F
:10070800675F000E685B695B6A5BDED7006A120090
:100718009D90CECF65F0000E0001666F676F686F21
:10072800CFCF01F0006A00506525056E01506621A3
:10073800066E000E6721076E000E6821086E05C060
:1007480065F006C066F007C067F008C068F01FC013
:1007580003F01EC002F0006A016A05500026065028
:100768000122075002220850032200C065F001C090
:1007780066F002C067F003C068F09D80B2DD170E16
:10078800046EB70E056E510E066E750E076EC1DD4E
:1007980050DE00C065F001C066F002C067F003C01B
:0407A80068F01200E3
:1007AC00086A096A100E0C6E0134083609360450BA
:1007BC00085E0550D8A0053C095ED8B007D004509F
:1007CC0008260550D8B0053C0926D89000360136CD
:0607DC000C2EEAD712000A
:1007E200C26A221C006E0050C116070EC012C08ED3
:1007F20060C000F000360090003600900050C21237
:10080200C28084DDC282C2A201D0FDD7C4CF01F072
:0E081200006AC3500012000E0112C2901200C4
:1008200018C066F019C067F01AC068F01BC069F004
:100830009E96C5869EB61FD0185019101A101B1010
:1008400019E0000166516711681169110CE125C0BA
:10085000E1FF26C0E2FF030EE66E23C000F024C0D5
:1008600001F086DE08D0010E0001665F000E675BB6
:10087000685B695BDFD70001C9CF65F06051000A92
:1008800002E1C58A01D0C59A9E96C58818C066F057
:1008900019C067F01AC068F01BC069F09EB61FD07F
:1008A000185019101A101B1019E000016651671139
:1008B000681169110CE125C0E1FF26C0E2FF030EBB
:1008C000E66E23C000F024C001F052DE08D0010E15
:1008D0000001665F000E675B685B695BDFD765C020
:0408E00000F0120012
:1008E4009E9660C0C9FF18C065F019C066F01AC0B2
:1008F40067F01BC068F0C7A421D0185019101A1053
:100904001B101BE0000165516611671168110EE1AF
:1009140025C0E1FF26C0E2FF040EE66E23C000F00E
:1009240024C001F023DE010E006E3AD0010E000156
:10093400655F000E665B675B685BDDD718C065F0BA
:1009440019C066F01AC067F01BC068F09EB621D0CB
:10095400185019101A101B101BE000016551661184
:10096400671168110EE125C0E1FF26C0E2FF040E05
:10097400E66E23C000F024C001F0F8DD010E006E25
:100984000FD0010E0001655F000E665B675B685B5C
:10099400DDD7C5BC02D0006A03D0C584020E006E48
:0209A40012003F
:0409A600C5841200F2
:1009AA0018C065F019C066F01AC067F01BC068F07D
:1009BA00C582C5A21FD0185019101A101B1019E0B1
:1009CA00000165516611671168110CE125C0E1FF4C
:1009DA0026C0E2FF060EE66E23C000F024C001F036
:1009EA00C2DD08D0010E0001655F000E665B675B21
:0609FA00685BDFD712006C
:100A00002FEC06F00001616B626B636B646B610E2F
:100A10005C6E000E5D6E0E0EC16EB6DD320EC86EDF
:100A2000CDDDB886B06A560EAF6EAC8402DE93841C
:100A30000B0E0B6E260E0C6E5D0E0D6E0D2EFED780
:100A40000C2EFCD70B2EFAD7000000001DDED00EB6
:100A50000001606F47DF6B0E0001606F43DF020E25
:100A60000001606F3FDF9FDF0FDED00E0001606F7F
:100A700039DF1C0E0001606F35DF0001606B32DF73
:100A800092DFE00EF26EF1889D80F088060ED56E42
:100A9000D58EB50ECD6EF8DDD00E0001606F22DF71
:100AA0003B0E0001606F1EDF80DFD10E0001606F22
:100AB00019DF010E0001606FB3DE00C05FF05E6AF7
:100AC000010E0001606FACDE00505E10536E5FC01F
:100AD00054F0000E5412010E0001606FA1DE00C040
:100AE0005FF05E6A010E0001606F9ADE00505E10DA
:100AF000556E5FC056F0000E5612010E0001606F79
:100B00008FDE00C05FF05E6A0001606B89DE00501E
:100B10005E10576E5FC058F0000E581244DFFCDDC7
:100B200000C061F001C062F002C063F003C064F075
:100B3000830E535E020E545ACF0E5526010E5622D6
:100B4000E40E575E060E585A000E1D1802E1000E04
:100B50001C180CE01CC004F01DC005F0660E006EF1
:100B6000E70E016E23DE00C059F001D0596A000182
:100B7000606B37DE00C05AF001C05BF054C000F07B
:100B8000000E54BEFF0E016E00C06BF059EC00F079
:100B900053C06BF059EC00F056C000F0000E56BE8A
:100BA000FF0E016E00C06BF059EC00F055C06BF009
:100BB00059EC00F058C000F0000E58BEFF0E016E58
:100BC00000C06BF059EC00F057C06BF059EC00F02E
:100BD00059C06BF059EC00F05BC000F0016A00C036
:100BE0006BF059EC00F05AC06BF059EC00F0030EBA
:100BF0005C24E96E000E5D20EA6EEECF6BF059ECDE
:100C000000F0020E5C24E96E000E5D20EA6EEECF6D
:100C10006BF059EC00F0010E5C24E96E000E5D20D3
:100C2000EA6EEECF6BF059EC00F05CC0E9FF5DC0FE
:100C3000EAFFEECF6BF059EC00F00D0E00016B6F88
:100C400059EC00F00A0E00016B6F59EC00F023D74D
:020C5000FFD7CC
:100C5E0010EE18F00B0E006E010E016E520EF66EB7
:0E0C6E000C0EF76E000EF86ED6EC02F01200BF
:040C5200000000009E
:020C560000009C
:040C58000000000098
:010C5C003067
:020000040030CA
:0E000000000C1F1EFF8381FF0FC00FE00F409A
:00000001FF
