:100000004AEF00F00000000000EF00F000000000E8
:0A0010000000000000000000F3D71C
:10001C003F0E1C6E060E1D6E5B0E1E6E4F0E1F6E7F
:10002C00660E206E6D0E216E7D0E226E070E236EF7
:10003C007F0E246E6F0E256E849084921C0E1824F5
:10004C00E96E000E1920EA6EEECF83FF000E1B182E
:10005C0002E1020E1A18D8B48480000E1B1802E1BB
:0A006C00010E1A18D8B484821200A5
:10007600086A080E0C6E003408360450085ED8B0C4
:0E00860002D00826D89000360C2EF5D71200B6
:100094001C0E166E0F0EC16E956A969096920A0EFD
:1000A400046E16C000F0E5DF08C000F000C017F0D1
:1000B4000A0E046E16C000F0DCDF00C015F017C095
:1000C40018F0000E196E010E1A6E000E1B6EA4DFDE
:1000D400340E0C6EF10E0D6E0D2EFED70C2EFCD7C9
:1000E4000000000015C018F0000E196E020E1A6E02
:1000F400000E1B6E91DF340E0C6EF10E0D6E0D2E84
:0E010400FED70C2EFCD700000000C9D7FFD795
:020000040030CA
:0D000100021F1EFF8381FF0FC00FE00F40A4
:00000001FF
