:02000000C9280D
:10000800FF00030E8301A4000A08A3008A018C1DC7
:100018000F288C11081423088A00240E8300FF0E71
:040028007F0E09003E
:0E002C008312031322088A00210882000800B4
:0C003A00000000000000000000000800B2
:10004600243083120313FC00B530FD00FD0B292874
:0A005600FC0B292800000000080040
:10006000831603139816903083129800831687170F
:10007000071383128C1E3F281A08F0003928080045
:1000800083160313861206120610861006118611B7
:10009000831286120612861106118610061023207E
:1000A000232023208614061486161D208612232062
:1000B00086161D208612232086161D2086122320D8
:1000C000061086161D208612232086161D208612F5
:1000D0008610861586161D2086122320861106148A
:1000E00086161D208612061086161D2086122320D5
:1000F00086161D208612061486161D2086122320C1
:10010000061086161D2086128615061586140614FE
:0C01100086161D208612232020140800F3
:10011C00831603138712871194131413323083122E
:04012C009400080033
:0E0130000030831203138C1A0130F000080017
:10013E0016208A110A128000840AA10A0319A20A43
:08014E00F003031D9F280800C7
:10015600831203131A08F100981CB32818121816F4
:060166007108F000080022
:10016C00831603139818BC280000B62883122508A0
:04017C0099000800DE
:10018000831203130818C528C028081025089300F7
:02019000080065
:1001920040208316081083120814073083169F002C
:1001A2008E2081308316990018153020C0308B00C4
:1001B20083168C153330FB00BB30FC00DF30FD00B2
:1001C200FD0BE128FC0BE128FB0BE12800000000FD
:1001D20098207008031DEE28E928AB207008A500BE
:1001E200C0200818F528F2281308A500B620E9282F
:0201F200F928EA
:02400E004A2F37
:00000001FF
