:1000000021EF05F00000000000EF00F0000000000C
:0A0010000000000000000000F3D71C
:10001C000B6A0A6A096A086A0E6A033408360450C5
:10002C00085E0550D8A0053C095E0650D8A0063CD9
:10003C000A5E0750D8A0073C0B5EE86AD8A0010EF8
:10004C000E5E0336070E0C6E0334083609360A367C
:10005C000B360E36045003A012D0085E0550D8A003
:10006C00053C095E0650D8A0063C0A5E0750D8A095
:10007C00073C0B5EE86AD8A0010E0E5E11D0082674
:10008C000550D8B0053C09260650D8B0063C0A26C7
:10009C000750D8B0073C0B26E86AD8B0010E0E26E4
:1000AC0003360C2ED1D70234083609360A360B36F5
:1000BC000E36045003A012D0085E0550D8A0053CA3
:1000CC00095E0650D8A0063C0A5E0750D8A0073C33
:1000DC000B5EE86AD8A0010E0E5E11D00826055002
:1000EC00D8B0053C09260650D8B0063C0A26075065
:1000FC00D8B0073C0B26E86AD8B0010E0E260236A3
:10010C00070E0C6E0234083609360A360B360E36DC
:10011C00045002A012D0085E0550D8A0053C095E20
:10012C000650D8A0063C0A5E0750D8A0073C0B5ED0
:10013C00E86AD8A0010E0E5E11D008260550D8B082
:10014C00053C09260650D8B0063C0A260750D8B004
:10015C00073C0B26E86AD8B0010E0E2602360C2E90
:10016C00D1D70134083609360A360B360E36045010
:10017C0002A012D0085E0550D8A0053C095E0650BE
:10018C00D8A0063C0A5E0750D8A0073C0B5EE86A74
:10019C00D8A0010E0E5E11D008260550D8B0053C33
:1001AC0009260650D8B0063C0A260750D8B0073CA2
:1001BC000B26E86AD8B0010E0E260136070E0C6E1F
:1001CC000134083609360A360B360E36045001A0B7
:1001DC0012D0085E0550D8A0053C095E0650D8A088
:1001EC00063C0A5E0750D8A0073C0B5EE86AD8A014
:1001FC00010E0E5E11D008260550D8B0053C09261C
:10020C000650D8B0063C0A260750D8B0073C0B263F
:10021C00E86AD8B0010E0E2601360C2ED1D7003468
:10022C00083609360A360B360E36045001A012D0A9
:10023C00085E0550D8A0053C095E0650D8A0063CC7
:10024C000A5E0750D8A0073C0B5EE86AD8A0010EE6
:10025C000E5E11D008260550D8B0053C0926065074
:10026C00D8B0063C0A260750D8B0073C0B26E86AE3
:10027C00D8B0010E0E260036070E0C6E0034083670
:10028C0009360A360B360E36045000A012D0085E22
:10029C000550D8A0053C095E0650D8A0063C0A5E65
:1002AC000750D8A0073C0B5EE86AD8A0010E0E5E82
:1002BC0011D008260550D8B0053C09260650D8B0F8
:1002CC00063C0A260750D8B0073C0B26E86AD8B083
:1002DC00010E0E2600360C2ED1D700B00ED00450D5
:1002EC0008260550D8B0053C09260650D8B0063C67
:0C02FC000A260750D8B0073C0B26120061
:100308000B1E0A1E091E081E082AD8B4092AD8B4CA
:080318000A2AD8B40B2A1200D6
:100320000450085E0550D8A0053C095E0650D8A0D0
:10033000063C0A5E0750D8A0073C0B5E0336070E4A
:100340000C6E0334083609360A360B36045003A007
:100350000ED0085E0550D8A0053C095E0650D8A016
:10036000063C0A5E0750D8A0073C0B5E0DD008265D
:100370000550D8B0053C09260650D8B0063C0A26E0
:100380000750D8B0073C0B2603360C2EDAD70234C0
:10039000083609360A360B36045003A00ED0085E24
:1003A0000550D8A0053C095E0650D8A0063C0A5E60
:1003B0000750D8A0073C0B5E0DD008260550D8B0DA
:1003C000053C09260650D8B0063C0A260750D8B08E
:1003D000073C0B260236070E0C6E0234083609362F
:1003E0000A360B36045002A00ED0085E0550D8A085
:1003F000053C095E0650D8A0063C0A5E0750D8A00E
:10040000073C0B5E0DD008260550D8B0053C0926E8
:100410000650D8B0063C0A260750D8B0073C0B2639
:1004200002360C2EDAD70134083609360A360B3676
:10043000045002A00ED0085E0550D8A0053C095E0D
:100440000650D8A0063C0A5E0750D8A0073C0B5EB9
:100450000DD008260550D8B0053C09260650D8B066
:10046000063C0A260750D8B0073C0B260136070E7B
:100470000C6E0134083609360A360B36045001A0DA
:100480000ED0085E0550D8A0053C095E0650D8A0E5
:10049000063C0A5E0750D8A0073C0B5E0DD008262C
:1004A0000550D8B0053C09260650D8B0063C0A26AF
:1004B0000750D8B0073C0B2601360C2EDAD7003493
:1004C000083609360A360B36045001A00ED0085EF5
:1004D0000550D8A0053C095E0650D8A0063C0A5E2F
:1004E0000750D8A0073C0B5E0DD008260550D8B0A9
:1004F000053C09260650D8B0063C0A260750D8B05D
:10050000073C0B260036070E0C6E00340836093601
:100510000A360B36045000A00ED0085E0550D8A055
:10052000053C095E0650D8A0063C0A5E0750D8A0DC
:10053000073C0B5E0DD008260550D8B0053C0926B7
:100540000650D8B0063C0A260750D8B0073C0B2608
:1005500000360C2EDAD700B00ED004500826055015
:10056000D8B0053C09260650D8B0063C0A260750EC
:08057000D8B0073C0B26120075
:0E057800ACB202D00000FCD7B2C0ADFF120042
:100586000001B86BB96B000EB95D02E10A0EB85DE9
:100596000BE2B851B625E16EB951B721E26E200ED5
:1005A600E66EB84BB92BEFD7B851B625E16EB95107
:1005B600B721E26EE66A010EB85F000EB95BB8516C
:1005C600B625BA6FB951B721BB6F0A0E046E000E7D
:1005D600056E066E076EB2C000F0B3C001F0B4C07F
:1005E60002F0B5C003F017DD08C000F009C001F045
:1005F6000AC002F00BC003F0300E0026BAC0E1FFBD
:10060600BBC0E2FF00C0E6FF0A0E046E000E056ED8
:10061600066E076EB2C000F0B3C001F0B4C002F0BF
:10062600B5C003F0F8DC00C0B2F001C0B3F002C000
:10063600B4F003C0B5F0000E046E031808E10450D0
:10064600021805E10450011802E10050000A01E118
:0E06560005D0010EB85F000EB95BB1D71200DF
:100664000450000A12E10550000A0FE10650000A86
:100674000CE10750000A09E1FF0E006EFF0E016E47
:10068400FF0E026E7F0E036E97D00C6A07BE0C2A13
:100694000D6A0B6A0A6A096A086A0350021001109B
:1006A4000010D8B484D0035007180E6E0EBE0D1E71
:1006B40007AE0BD0041E051E061E071E042AD8B45E
:1006C400052AD8B4062AD8B4072A03AE0BD0001ED4
:1006D400011E021E031E002AD8B4012AD8B4022A1D
:1006E400D8B4032A035007100E6E0EBE1CD016DEBB
:1006F4000CBE36D00DAE5BD0001E011E021E031EC2
:10070400002AD8B4012AD8B4022AD8B4032A081E6D
:10071400091E0A1E0B1E082AD8B4092AD8B40A2AAC
:10072400D8B40B2A44D007AE15D003BE0DD0035065
:100734000B6E02500A6E0150096E0050086E036A77
:10074400026A016A006AD6D7036A026A016A006A09
:10075400002A000C031E021E011E001E0C8EC7D7A9
:10076400082AD8B4092AD8B40A2AD8B40B2A0450BF
:10077400085CD8A4BFD70550095CD8A4BBD70650E1
:100784000A5CD8A4B7D707500B5CD8A4B3D70B6ABC
:100794000A6A096A086A002AD8B4012AD8B4022A63
:1007A400D8B4032A03AEA6D70E6A0E88FF0C0E6ACD
:0A07B4000CA001D0A7DD000F120019
:1007BE000001AC6BAD6BA4C0AEF0A5C0AFF0A6C08F
:1007CE00B0F0A7C0B1F0800EA719006E800E005CCD
:1007DE0008E1000EA65D05E1000EA55D02E1000E2A
:1007EE00A45D10E2010EAC6F000EAD6FAE6BAF6B81
:1007FE00B06BB16BA451AE5FA551AF5BA651B05BB0
:10080E00A751B15BAEC0B2F0AFC0B3F0B0C0B4F0A0
:10081E00B1C0B5F0A8C0B6F0A9C0B7F0ADDE0B0EF2
:10082E00AA6F000EAB6F000E006EAB51005C02E1C2
:10083E00AA51000819E2AA51A825E16EAB51A921CF
:10084E00E26E010EAA5D006E000EAB59016E0050F5
:10085E00A825E96E0150A921EA6EEECFE6FF010E42
:10086E00AA5F000EAB5BDFD7A8C0E1FFA9C0E2FF15
:10087E00200EE66EAC51AD111AE0AA6BAB6BAA510D
:10088E00A825E96EAB51A921EA6EEE50200A03E1CC
:10089E00AA4BAB2BF4D7010EAA5F000EAB5BAA518D
:1008AE00A825E16EAB51A921E26E2D0EE66E120067
:1008BE000001A66BA76BA4C003F0A5C004F0A4C0F2
:1008CE0005F0A5C006F003C0E9FF04C0EAFFEE5034
:1008DE00200A04E1A651A71101E110D0010EA66F66
:1008EE00000EA76F03C0E9FF04C0EAFF05C0E1FFD9
:1008FE0006C0E2FFEECFE6FF054A062A03C001F06E
:10090E0004C002F0034A042A01C0E9FF02C0EAFF54
:10091E00EE50000AD8E1A4C000F0A5C001F012000C
:10092E00780E0001816F050E826FB20E836F000E7E
:10093E00846F260E856F0A0E866F000E876F000E6F
:10094E00886F860E766E090E776E000E786E000E2C
:10095E00796EFF0E7A6EFF0E7B6E000E7C6E000EB1
:10096E007D6EAC8A900EAB6E948E949C9EAA03D034
:08097E00AECF00F0FBD7120020
:0A098600000E9EBA010E006E120072
:100990000001806BA4C0E9FFA5C0EAFFEECF7FF0A5
:1009A0007F50000A0EE07FC0B2F0E6DD0001802B30
:1009B0008051A425E96E000EA521EA6EEECF7FF0EE
:0409C000EFD712005B
:1009C4000900F5CFE6FF0006FBE10106F9E112009C
:1009D400220E0C6E086A096A0A6A0B6A0C06D8B4FD
:1009E4001FD0D8900B320A32093208320332023255
:1009F40001320032D8A0F2D70C06D8B409D0045082
:100A040008260550092206500A2207500B22EAD76D
:100A1400045008260550092206500A2207500B22CA
:020A24001200BE
:100A2600AECF01F0ABA202D0AB98AB8801C000F00C
:020A36001200AC
:0A0A38000D0E0001B26F9CDD1200EC
:100A4200B8EC06F00F0EC16EB886020EB06E080E3C
:100A5200AF6EAC846BDFFE0E0B6EA70E0C6E650ED6
:100A62000D6E0D2EFED70C2EFCD70B2EFAD70000E2
:100A720000001E0EA46F000EA56F89DFDCDFDBDF36
:100A8200310E0001A46F000EA56F81DF946B956B90
:100A9200966B976B77DF005231E0C4DF00C07EF0C7
:100AA20000500D0A01E12BD07EC0B2F064DD300EA1
:100AB2007E5C0001A06FA16B000EA15B000EA1BFC6
:100AC200FF0EA26FA36F0A0E006E000E016E026E81
:100AD200036E94C004F095C005F096C006F097C06E
:100AE20007F077DFA0510024946FA1510120956F88
:100AF200A2510220966FA3510320976FCBD79BDFA1
:100B02004A0E0001A46F000EA56F41DF986B996B2E
:100B12009A6B9B6B37DF005231E084DF00C07EF0BE
:100B220000500D0A01E12BD07EC0B2F024DD300E60
:100B32007E5C0001A06FA16B000EA15B000EA1BF45
:100B4200FF0EA26FA36F0A0E006E000E016E026E00
:100B5200036E98C004F099C005F09AC006F09BC0DD
:100B620007F037DFA0510024986FA1510120996F3F
:100B7200A25102209A6FA35103209B6FCBD75BDF58
:100B8200640E0001A46F000EA56F01DFFBDE0052B0
:100B920011E048DF00C07EF000500D0A01E10BD0E9
:100BA2007EC0B2F0E8DC7EC090F0000E0001916FD2
:100BB200926F936FEBD73FDF53D00001985194258A
:100BC2009C6F995195219D6F9A5196219E6F9B51D1
:100BD20097219F6F7AD094C09CF095C09DF096C0EB
:100BE2009EF097C09FF098519C5F99519D5B9A51DE
:100BF2009E5B9B519F5B69D094C000F095C001F051
:100C020096C002F097C003F098C004F099C005F0B6
:100C12009AC006F09BC007F0DCDE00C09CF001C069
:100C22009DF002C09EF003C09FF04FD098C004F028
:100C320099C005F09AC006F09BC007F094C000F07E
:100C420095C001F096C002F097C003F00ADD00C023
:100C52009CF001C09DF002C09EF003C09FF035D011
:100C6200000E006E0001931908E10050921905E18F
:100C72000050911902E190512B0A9FE0000E006E84
:100C8200931908E10050921905E10050911902E10F
:100C920090512D0AA0E0000E006E931908E1005059
:100CA200921905E10050911902E190512A0AA4E03B
:100CB200000E006E931908E10050921905E10050F0
:100CC200911902E190512F0AB1E00001150EA46FB3
:100CD200000EA56F5CDE9CC0A4F09DC0A5F09EC076
:100CE200A6F09FC0A7F0890EA86F000EA96F66DD5F
:100CF200890EA46F000EA56FE1DD00C0A4F001C053
:0C0D0200A5F045DE98DE97DEBBD6FFD7DB
:100D700010EE15F0610E006E010E016E0E0EF66E95
:0E0D80000D0EF76E000EF86EE2EC04F012009D
:090D0E00526573756C743A200003
:100D170043414C43554C41544F522050524F475238
:030D2700414D003B
:100D2A00456E7465722074686520666972737420F2
:090D3A006E756D6265723A2000CD
:100D4300456E74657220746865207365636F6E64A5
:0A0D5300206E756D6265723A200093
:100D5D00456E746572206F7065726174696F6E3A5D
:020D6D00200064
:020000040030CA
:0D000100021F1EFF8381FF0FC00FE00F40A4
:00000001FF
