:040000008A15002835
:10000800FF00030E8301D7000A08D8008A01700890
:10001800A5007108A4007208A3007308A2000B1CB5
:100028005F280B10061A2828261C282826101010CE
:100038000F08F100F00170080E07CF000030031818
:10004800013E7107D0001014861A3A28A61C3A28D7
:10005800A61010100F08F100F00170080E07CD006F
:1000680000300318013E7107CE001014061B4C28FF
:10007800261D4C28261110100F08F100F0017008F9
:100088000E07D30000300318013E7107D400101486
:10009800861B5E28A61D5E28A61110100F08F10009
:1000A800F00170080E07D50000300318013E7107F3
:1000B800D600101473280C1C73280C10261C6628F4
:1000C800CF01D001A61C6A28CD01CE01261D6E28BD
:1000D800D301D401A61D7228D501D601A6010B1D96
:1000E8008D280B112708F0002808F1002908F200D4
:1000F8002A08F300F00A0319F10A0319F20A03198E
:10010800F30A7008A7007108A8007208A90073080C
:10011800AA002508F0002408F1002308F2002208AC
:10012800F30058088A00570E8300FF0E7F0E09005F
:10013800FB14FB1FA628FF30F300F200F100F000CB
:08014800FA0DF20CFF30080073
:0E015000F201F101F001F801F30100300800A6
:10015E007B15FB1FB9280130F300F201F101F0010C
:08016E00FA0DF20CFF3008004D
:08017600FA1FF213003008002B
:10017E007C18F528FC18C6287C191429BF28A10163
:10018E007208031DE6287108F2007008F100780865
:10019E00F000F801A1157208031DE6287108F2009F
:1001AE007008F100F001A11121167208031DE62856
:1001BE007108F200F101A11572080319082921082E
:1001CE00F302031D031C0C290310F21BF528F80D76
:1001DE00F00DF10DF20DF30BEC280C297B1B701CAE
:1001EE001029F81F1029F00A0319F10A0319F20A4F
:1001FE00031D1029F20CF10CF00CF30A031914294B
:10020E0010290130FC00A82017290230FC00AF2075
:10021E0017290430FC00BB2017290830FC009C2055
:04022E0000000800C4
:100232007B14FB1F2429F201FA1FFF30F200F100A8
:0A024200F000FA0DF20CFF30080086
:10024C0083120313FD01F8017008031900347406BE
:10025C00FA00FA1BFD09FB01F41F3629F409F40A14
:10026C00F01F3A29F009F00A70087404FA00FA1B1E
:10027C005E297408F802F00D700DF80D7408F8077B
:10028C00F00D0630FC00700DF80D74087018F802B3
:10029C00701CF807F00DFC0B4929701CF8077B1833
:1002AC006C29FD1F0034F009F00AF809F80A003433
:1002BC00F41F6929F01B66297008F800F001572912
:1002CC00F001F00A0034F009FB0A3F29F80A74081F
:1002DC007802031D5729F801F00AF01F5729FF3443
:0202EC00080008
:1002EE008316031398187D29000077293908831285
:0402FE00990008005B
:0E0302008312031352088A005108820008007B
:10031000831203137008F8007108F0007208F100EE
:100320007308F200F301FB01FC019E30F300FA01B7
:080330000230FC00BF200800B0
:1003380083120313FB01FC01F80173080319152A42
:10034800F2179E30F302F31BAC290319AC29052AD6
:10035800F309F30A08307302031CDA29F300F80DD5
:100368007008F8007108F0007208F100F201083016
:100378007302031CDA29F300F80D7008F8007108FD
:10038800F000F10108307302031CDA29F300F80DBC
:100398007008F800F00108307302031CDA29F30032
:1003A800F80DF8017308031D0310E42973080319F5
:1003B800E4290310F20CF10CF00CF80CF30BDD2916
:1003C8007B1B781CF229031CF229F80A0319F00A8E
:1003D8000319F10A0319F20AF21B122AFA1F152A45
:1003E800F209F109F009F809F80A0319F00A0319E2
:1003F800F10A0319F20A152AF201F101F001F801D4
:10040800152A7B14FB1F182AF201FA1F182AF2007A
:10041800F100F000F800FA0DF20C182A0130FC0087
:100428001A2A0030FC001A2AFF30FC00FC080319C5
:100438001E2A19217208F3007108F2007008F100F1
:060448007808F000080036
:10044E00A1017208031D3C2A7108F2007008F10028
:10045E00F001A1157208031D3C2A7108F200F1018A
:10046E00A1112116720803194A2A2108F302031D4D
:10047E00031C4E2A0310F21B522AF00DF10DF20D41
:10048E00F30B422A4E2A0130FC00A820552A0230D6
:0E049E00FC00AF20552A0430FC00BB200800F3
:1004AC00831603133908F2007208F100F20A3A08B5
:1004BC00F000BA0A700884000008F000710884008B
:1004CC007008800071088400000803196E2A5A2AEB
:0604DC003908F0000800E1
:1004E20083120313FB017308031D77080319C82A3B
:1004F20072087606FA007708F3077E30031C852A15
:10050200F3020318CB2A882AF302031CCE2A7208AC
:10051200F8007108FC007008FD00F817F6170310C8
:10052200F201F101F0011830A1007D1CA22A740829
:10053200F00775080318750FF10776080318760F90
:10054200F207F20CF10CF00CF80CFC0CFD0C031091
:10055200A10B962AF21BB22AF80DF00DF10DF20D45
:10056200F3037B1B701CC42AF81FC42AF00A031968
:10057200F10A0319F20A031DC42AF20CF10CF00C61
:10058200F30A0319CB2AFA1FF2130030D02A0130E2
:10059200A820D02A02309C20D02A0430AF200000AC
:0205A20008004F
:1005A40083120313FA017308031D7A147708031DD9
:1005B400FA147A0803191E2B033A0319E92A7A1844
:1005C400E62AF61F1C2B1A2BF21F1A2B1C2B72085F
:1005D4008039FA00F21376088039F6137A06031983
:1005E400F72A7A0803191A2B1C2B770873020319AC
:1005F400FE2A031C122B162B760872020319052BF4
:10060400031C122B162B7508710203190C2B031CE7
:10061400122B162B7408700203191E2B0318162BA9
:10062400FA0803191C2B1A2BFA0803191A2B1C2B72
:10063400031408000310080003140315080008003D
:1006440083120313FB01FA01F901F801A001730DF0
:10065400F80D7408F8027508031C750FF902760882
:10066400031C760FFA027708031C770FFB020001C4
:10067400031C0130A002F30D0730FC00730DF80DCC
:10068400F90DFA0DFB0DA00D7408731C5B2BF80219
:100694007508031C750FF9027608031C760FFA021D
:1006A4007708031C770FFB020001031C0130A00232
:1006B4006C2BF80775080318750FF90776080318EB
:1006C400760FFA0777080318770FFB070001031862
:1006D4000130A007F30DFC0B402B720DF80DF90D42
:1006E400FA0DFB0DA00D7408731C8A2BF802750813
:1006F400031C750FF9027608031C760FFA027708BB
:10070400031C770FFB020001031C0130A0029B2B8A
:10071400F80775080318750FF90776080318760F9C
:10072400FA0777080318770FFB0700010318013055
:10073400A007F20D0730FC00720DF80DF90DFA0D4B
:10074400FB0DA00D7408721CB92BF8027508031C6C
:10075400750FF9027608031C760FFA027708031C5A
:10076400770FFB020001031C0130A002CA2BF8071B
:1007740075080318750FF90776080318760FFA073A
:1007840077080318770FFB07000103180130A0074F
:10079400F20DFC0B9E2B710DF80DF90DFA0DFB0DEE
:1007A400A00D7408721CE82BF8027508031C750F61
:1007B400F9027608031C760FFA027708031C770FF8
:1007C400FB020001031C0130A002F92BF807750895
:1007D4000318750FF90776080318760FFA077708D8
:1007E4000318770FFB07000103180130A007F10D70
:1007F4000730FC00710DF80DF90DFA0DFB0DA00D7D
:100804007408711C172CF8027508031C750FF90283
:100814007608031C760FFA027708031C770FFB0295
:100824000001031C0130A002282CF80775080318E6
:10083400750FF90776080318760FFA077708031877
:10084400770FFB07000103180130A007F10DFC0B23
:10085400FC2B700DF80DF90DFA0DFB0DA00D7408AD
:10086400711C462CF8027508031C750FF9027608F2
:10087400031C760FFA027708031C770FFB020001B2
:10088400031C0130A002572CF80775080318750FD4
:10089400F90776080318760FFA0777080318770F15
:1008A400FB07000103180130A007F00D0730FC001E
:1008B400700DF80DF90DFA0DFB0DA00D7408701CE8
:1008C400752CF8027508031C750FF9027608031CD1
:1008D400760FFA027708031C770FFB020001031C52
:1008E4000130A002862CF80775080318750FF90764
:1008F40076080318760FFA0777080318770FFB07B3
:10090400000103180130A007F00DFC0B5A2C7018DD
:10091400992C7408F80775080318750FF9077608F9
:100924000318760FFA0777080318770FFB070800F8
:1009340083160313B701B8012C08B3002D08B400C3
:100944002E08B5002F08B6003608FF3A031DB42C54
:100954003508FF3A031DB42C3408FF3A031DB42CA8
:100964003308FF3A031DBE2C3008B9002B30BA00FF
:1009740056220330F0009F2E0130B100B51FCD2C5C
:1009840080303506F0007008B500B10A30088400E4
:100994002D308000B00A0030F0003606031DDC2C38
:1009A40070083506031DDC2C70083406031DDC2C8E
:1009B4003308003A031DE52C3008B9003930BA0079
:1009C4005622F0019F2E3608FF3A031DF32C3508FA
:1009D400003A031DF32C3408003A031DF32C3308AA
:1009E400003A031DFD2C3008B9003530BA005622F8
:1009F4003108F0009F2E0030F4000030F500003084
:100A0400F6007F30F7003308F0003408F1003508B1
:100A1400F2003608F300D222013003180030F0004F
:100A240070080319322D83163308F0003408F100DE
:100A34003508F2003608F3000030F4000030F50009
:100A44002030F6008230F700712270088316B3005C
:100A54007108B4007208B5007308B600B803FD2C21
:100A640083160030F4000030F5002030F6008230A8
:100A7400F7003308F0003408F1003508F2003608B6
:100A8400F300D2220130031C0030F0007008031977
:100A9400682D83163308F0003408F1003508F2009D
:100AA4003608F300CD30F400CC30F5004C30F600BD
:100AB4007B30F700712270088316B3007108B4000C
:100AC4007208B5007308B600B80A322D8316FF30D9
:100AD4003305F800FF303405F9007F303505FA009E
:100AE40000303605FB007808F4007908F5007A0830
:100AF400F6007B08F700F40DF50DF60DF70D7410F4
:100B040000303305F00000303405F10000303505C5
:100B1400F200FF303605F3007008B3007108B4002A
:100B24007208B5007308B60074083304F000750841
:100B34003404F10076083504F20077083604F30033
:100B44007008B3007108B4007208B5007308B600E9
:100B54007F303602F0007008B2000130B600700831
:100B6400F4003308F0003408F1003508F2003608C8
:100B7400F30074080319C52DF00DF10DF20DF30DFA
:100B84007010FF3EBC2D7008B3007108B4007208E9
:100B9400B5007308B6003608303EF0003008840013
:100BA40070088000B00A80303806F0008030013AC6
:100BB4007002031CE62D8030063AF00080303806BF
:100BC4007002031CE62DED2D300884002E308000C9
:100BD400B00A0130B7000630B2003208003A0319F7
:100BE4004B2EB6013308F0003408F1003508F2004A
:100BF4003608F300F00DF10DF20DF30D7010F00D49
:100C0400F10DF20DF30D70103308F00734080318DA
:100C1400340FF10735080318350FF20736080318A7
:100C2400360FF3077008B3007108B4007208B500FA
:100C34007308B6003308F0003408F1003508F200F8
:100C44003608F300F00DF10DF20DF30D701070087D
:100C5400B3007108B4007208B5007308B600360812
:100C6400303EF0003008840070088000B00A370875
:100C7400003A031D492EB8033808003A031D492ED3
:100C8400300884002E308000B00A0130B700B2036F
:100C9400EF2DFF30300784000008303A031D542E36
:100CA400B0034B2EFF303007840000082E3A031D9A
:100CB4005C2EB0033808003A03199B2E30088400D8
:100CC40065308000B00A80303806F0008030003A89
:100CD40070020318752E300884002D308000B00A8D
:100CE4003808003CB8003808B2008030093AF000F7
:100CF40080303806700203188C2E0A30F400320853
:100D0400F00026213030F007831630088400700884
:100D14008000B00A0A30F4003208F0002621780876
:100D2400F0003030F007831630088400700880002B
:0C0D3400B00A300884008001F0010800C3
:100D400083160313AE012C0884000008AD002D08A3
:100D5000003A0319B62E2D08B90077218316AE0A82
:0E0D60002E082C0784000008AD00A72E080006
:100D6E0083160313B101B20100303202031DC12EEE
:100D7E000A3031020318CC2E31083007840020309F
:100D8E008000B10A0319B20ABB2E31083007840065
:100D9E0080010130B102031CB20331083007B300E9
:100DAE000A30F400F501F601F7012C08F0002D08C9
:100DBE00F1002E08F2002F08F30022237808F0002D
:100DCE007908F1007A08F2007B08F3003030F00762
:100DDE00831633088400700880000A30F400F50191
:100DEE00F601F7012C08F0002D08F1002E08F20094
:100DFE002F08F300222370088316AC007108AD0093
:100E0E007208AE007308AF000030F4007306031DC5
:100E1E001A2F74087206031D1A2F74087106031D0B
:100E2E001A2F7008003A031D1D2F222F0130B10218
:080E3E00031CB203D42E0800CE
:100E46008B12831203132908F7002808F6002708D7
:100E5600F500F4010108F000F101F201F301740854
:100E6600F00775080318750FF10776080318760F53
:100E7600F20777080318770FF3078B1688211730C8
:100E8600F400B730F5005130F6007A30F7007122E1
:040E96009C21080093
:100E9A0083160313981690308312980083168717C7
:100EAA00071383128C1E5C2F1A08F000562F0800B5
:100EBA0081218A110A128000840AD10A0319D20AEE
:080ECA00F003031D5D2F080079
:100ED200831203137008F8007108F000F101F201A7
:100EE200F301FB01FC019630F300FA017008F100F6
:0C0EF2007808F000F801F2012722080047
:100F4C0026308400273083120313F0007F30D10049
:080F5C000730D2005D270800F8
:101000008A11A6278A1583120313E801E901EA0170
:10101000EB01EC01ED01EE01EF018316A001A1014E
:10102000A201A301A401A501A601A7011530990001
:1010300018158A114D278A150E3083169F00071048
:1010400006168710861607110617871186170330B4
:10105000FB008A30FC005530FD00FD0B2D28FC0BF9
:101060002D28FB0B2D2800000000831207103030C4
:101070009000C73083168100E8308B0001308C006F
:101080008312A60107148714071587151030FD0079
:10109000FD0B482800000710871007118711101456
:1010A000061E5928861E5928061F5928861F5928AA
:1010B0005E28C8300F0203185E28502810108F01D8
:1010C00001308E0010140F30A6002608003A0319D4
:1010D0006A28652810108A1123278A157008E400F1
:1010E0007108E5007208E6007308E7004F08F00099
:1010F0005008F1008A1169278A158930F400D2302E
:10110000F5005E30F6007930F7008A1171228A15F9
:1011100070088316A8007108A9007208AA00730855
:10112000AB0028088312E800831629088312E9001F
:1011300083162A088312EA0083162B088312EB0019
:101140004D08F0004E08F1008A1169278A15893090
:10115000F400D230F5005E30F6007930F7008A11E5
:1011600071228A157008EC007108ED007208EE001B
:101170007308EF005308F0005408F1008A11692742
:101180008A158930F400D230F5005E30F6007930EF
:10119000F7008A1171228A1570088316A000710861
:1011A000A1007208A2007308A30083125508F00082
:1011B0005608F1008A1169278A158930F400D23067
:1011C000F5005E30F6007930F7008A1171228A1539
:1011D00070088316A4007108A5007208A6007308A1
:1011E000A7002808F4002908F5002A08F6002B08B3
:1011F000F7000030F0000030F1001630F2008730C8
:10120000F3008A11D2228A15013003180030F00051
:10121000700803190F29E801E901EA01EB016C08E4
:10122000F4006D08F5006E08F6006F08F700003056
:10123000F0000030F1001630F2008730F3008A1120
:10124000D2228A15013003180030F000700803190B
:101250002D29EC01ED01EE01EF0183162008F400C9
:101260002108F5002208F6002308F7000030F000FE
:101270000030F1001630F2008730F3008A11D222DC
:101280008A15013003180030F000700803194D2949
:101290008316A001A101A201A30183162408F40072
:1012A0002508F5002608F6002708F7000030F000B2
:1012B0000030F1001630F2008730F3008A11D2229C
:1012C0008A15013003180030F000700803196D29E9
:1012D0008316A401A501A601A70183128F018E0127
:1012E00068088316AC00831269088316AD00831268
:1012F0006A088316AE0083126B088316AF0059305C
:10130000B0008A119A248A155930AC008A11A0269F
:101310008A153B30AC008A11A0268A1583126C080E
:101320008316AC0083126D088316AD0083126E081D
:101330008316AE0083126F088316AF005930B000D9
:101340008A119A248A155930AC008A11A0268A1570
:101350004730AC008A11A0268A152008AC0021086D
:10136000AD002208AE002308AF005930B0008A114A
:101370009A248A155930AC008A11A0268A1541306A
:10138000AC008A11A0268A152408AC002508AD00FF
:101390002608AE002708AF005930B0008A119A2401
:1013A0008A155930AC008A11A0268A152F30AC005E
:1013B0008A11A0268A15831264088316AC00831252
:1013C00065088316AD00831266088316AE0083128B
:1013D00067088316AF005930B0008A11B7268A1506
:1013E0005930AC008A11A0268A150D30B9008A1137
:1013F00077218A150A308316B9008A1177218A1558
:10140000061A092A861A092A061B092A861B092A8E
:081410000A2A002A40280B2AD9
:020EFE000034BE
:080F0000003400340034003419
:080F08004E3461344E34003414
:0C0F1000203420342034203420340034FD
:080F1C0049344E344634003420
:040F24003034003431
:0C0F2800203420342034203420340034E5
:0C0F3400203420342034203420340034D9
:0C0F4000203420342034203420340034CD
:02400E004A2F37
:00000001FF
