:040000008A15002835
:0E000600F201F101F001F801F30100300800F1
:100014007B15FB1F14280130F300F201F101F001FC
:08002400FA0DF20CFF30080098
:0C002C00000000000000000000000800C0
:08003800FA1FF213003008006A
:0E004000533083120313FD00FD0B242808002B
:10004E00243083120313FC00B530FD00FD0B2D2868
:0A005E00FC0B2D2800000000080034
:10006800FB14FB1F3E28FF30F300F200F100F00004
:08007800FA0DF20CFF30080044
:10008000A0017208031D55287108F2007008F100E4
:10009000F001A0157208031D55287108F200F10146
:1000A000A01120167208031963282008F302031D0B
:1000B000031C67280310F21B6B28F00DF10DF20DE5
:1000C000F30B5B2867280130FC0003206E28023008
:0E00D000FC000A206E280430FC001C200800F2
:1000DE0083160313C41B7628831286117828831285
:1000EE0086158316441B7E288312061180288312E0
:1000FE0006158316C41A8628831286108828831242
:10010E0086148316441A8E288312061090288312A2
:10011E0006144C18942806169528061286161620D4
:10012E0086128316C4199E2883128611A028831264
:10013E00861583164419A62883120611A828831241
:10014E0006158316C418AE2883128610B0288312A3
:10015E00861483164418B62883120610B828831204
:10016E0006144C18BC280616BD2806128616162034
:0E017E0086124C1CC4282720C528202008000B
:10018C007C18FC28FC18CD287C191B29C628A0013A
:10019C007208031DED287108F2007008F100780850
:1001AC00F000F801A0157208031DED287108F2008B
:1001BC007008F100F001A01120167208031DED2843
:1001CC007108F200F101A015720803190F2920081B
:1001DC00F302031D031C13290310F21BFC28F80D5A
:1001EC00F00DF10DF20DF30BF32813297B1B701C92
:1001FC001729F81F1729F00A0319F10A0319F20A33
:10020C00031D1729F20CF10CF00CF30A03191B292E
:10021C0017290130FC0003201E290230FC000A20A3
:10022C001E290430FC001C201E290830FC00342040
:04023C0000000800B6
:1002400083160313AA01AB011130AC002130AD00BD
:100250004130AE001230AF002230B0004230B10069
:100260001430B2002430B3004430B4001830B5006C
:100270002830B6004830B7000130B8000230B9006D
:100280000330BA000430BB000530BC000630BD00AE
:100290000730BE000830BF000930C0002A30C1005E
:1002A000C2012330C3002A08AC3E8400000829069E
:1002B00003196729AA0A0319AB0A00302B06031D8C
:1002C00063290C302A06031D6629672953292A0849
:0A02D000B83E84000008F0000800AA
:0602DA00FB15FF300800D7
:0E02E000831203134B088A004A0882000800AC
:1002EE00831203134C1083162908C4006F204C147C
:0202FE000800F6
:10030000831603132908F2007208F100F20A2A0882
:10031000F000AA0A700884000008F0007108840048
:100320007008800071088400000803199829842946
:060330002908F00008009E
:1003360083120313FA017308031D7A147708031D49
:10034600FA147A080319E729033A0319B2297A1825
:10035600AF29F61FE529E329F21FE329E5297208EB
:100366008039FA00F21376088039F6137A060319F3
:10037600C0297A080319E329E529770873020319C6
:10038600C729031CDB29DF29760872020319CE2947
:10039600031CDB29DF29750871020319D529031C03
:1003A600DB29DF29740870020319E7290318DF29FE
:1003B600FA080319E529E329FA080319E329E529C7
:1003C60003140800031008000314031508000800AE
:1003D60083120313FB017308031D77080319422ACE
:1003E60072087606FA007708F3077E30031CFF29A9
:1003F600F3020318452A022AF302031C482A72084C
:10040600F8007108FC007008FD00F817F6170310D5
:10041600F201F101F0011830A0007D1C1C2A7408BD
:10042600F00775080318750FF10776080318760F9D
:10043600F207F20CF10CF00CF80CFC0CFD0C03109E
:10044600A00B102AF21B2C2AF80DF00DF10DF20D5F
:10045600F3037B1B701C3E2AF81F3E2AF00A031981
:10046600F10A0319F20A031D3E2AF20CF10CF00CF4
:10047600F30A0319452AFA1FF21300304A2A0130FB
:1004860003204A2A023034204A2A04300A20000077
:0204960008005C
:1004980083120313FD01F801700803190034740670
:1004A800FA00FA1BFD09FB01F41F5C2AF409F40A9F
:1004B800F01F602AF009F00A70087404FA00FA1BA9
:1004C800842A7408F802F00D700DF80D7408F80706
:1004D800F00D0630FC00700DF80D74087018F80265
:1004E800701CF807F00DFC0B6F2A701CF8077B18BE
:1004F800922AFD1F0034F009F00AF809F80A0034BE
:10050800F41F8F2AF01B8C2A7008F800F0017D2A4E
:10051800F001F00A0034F009FB0A652AF80A7408A9
:100528007802031D7D2AF801F00AF01F7D2AFF34A6
:020538000800B9
:10053A008312031372087606A000F801F901730802
:10054A007702031CC02A7708FD007308F7007D08AC
:10055A00F3007608FD007208F6007D08F2007508BF
:10056A00FD007108F5007D08F1007408FD007008AF
:10057A00F4007D08F00077080319392B7208FA0095
:10058A00F217F61777087302F7000319F32A0830EF
:10059A007702031CE92AF7007408F9007508F400C9
:1005AA007608F500F60108307702031CE92AF700FD
:1005BA007408F9007508F400F50108307702031C85
:1005CA00E92A7A08F200392B77080319F32A03106B
:1005DA00F60CF50CF40CF90CF70BEC2AA01F002B07
:1005EA00F909F409F509F609F90A0319F40A0319CC
:1005FA00F50A0319F60A7908F80774080318740F3C
:10060A00F00775080318750FF10776080318760FB7
:10061A00F207A01B192B031C292BF20CF10CF00C6E
:10062A00F80CF30F292B352B03182D2BF809F00999
:10063A00F109F209F80A0319F00A0319F10A031970
:10064A00F20A8030FA06312B0130FC00C6203B2B1F
:10065A000230FC00C6203B2B0430FC0040203B2B20
:10066A000830FC0034203B2B0030FC00000008005E
:10067A0083120313EE01EF0183162008A500210857
:10068A00A6002208A7002308A8002808FF3A031D8D
:10069A00582B2708FF3A031D582B2608FF3A031D3B
:1006AA00582B2508FF3A031D622B2408A900213084
:1006BA00AA0080210330F0005D2D01308312EC0086
:1006CA008316A71F752B80302706F0007008A70035
:1006DA008312EC0A8316240884002D308000A40AB1
:1006EA000030F0002806031D842B70082706031D1E
:1006FA00842B70082606031D842B2508003A031D47
:10070A008D2B2408A9002A30AA008021F0015D2D32
:10071A002808FF3A031D9B2B2708003A031D9B2B31
:10072A002608003A031D9B2B2508003A031DA62B19
:10073A002408A9002C30AA00802183126C08F0003A
:10074A005D2D0030F4000030F5000030F6007F30F7
:10075A00F70083162508F0002608F1002708F200A2
:10076A002808F3009B21013003180030F0007008BC
:10077A000319DD2B83162508F0002608F100270847
:10078A00F2002808F3000030F4000030F5002030B1
:10079A00F6008230F700EB2170088316A500710875
:1007AA00A6007208A7007308A8008312EF03A62BFD
:1007BA000030F4000030F5002030F6008230F700F7
:1007CA0083162508F0002608F1002708F2002808F9
:1007DA00F3009B210130031C0030F000700803195C
:1007EA00142C83162508F0002608F1002708F200C9
:1007FA002808F300CD30F400CC30F5004C30F60078
:10080A007B30F700EB2170088316A5007108A6005B
:10081A007208A7007308A8008312EF0ADD2BFF30C5
:10082A0083162505F800FF302605F9007F302705D5
:10083A00FA0000302805FB007808F4007908F50072
:10084A007A08F6007B08F700F40DF50DF60DF70DA2
:10085A00741000302505F00000302605F100003044
:10086A002705F200FF302805F3007008A50071087B
:10087A00A6007208A7007308A80074082504F000EF
:10088A0075082604F10076082704F2007708280480
:10089A00F3007008A5007108A6007208A700730883
:1008AA00A8007F302802F00070088312ED000130A2
:1008BA008316A8007008F4002508F0002608F10045
:1008CA002708F2002808F30074080319732CF00DA6
:1008DA00F10DF20DF30D7010FF3E6A2C83167008AD
:1008EA00A5007108A6007208A7007308A8002808C6
:1008FA00303EF0002408840070088000A40A80308A
:10090A0083126F06F0008030013A7002031C962CA5
:10091A008030063AF00080306F067002031C962C75
:10092A009F2C8316240884002E308000A40A0130EC
:10093A008312EE000630ED006D08003A0319012D0E
:10094A008316A8012508F0002608F1002708F200FE
:10095A002808F300F00DF10DF20DF30D7010F00DF3
:10096A00F10DF20DF30D70102508F0072608031893
:10097A00260FF10727080318270FF207280803187C
:10098A00280FF3077008A5007108A6007208A700CF
:10099A007308A8002508F0002608F1002708F200CD
:1009AA002808F300F00DF10DF20DF30D7010700828
:1009BA00A5007108A6007208A7007308A8002808F5
:1009CA00303EF0002408840070088000A40A8312D4
:1009DA006E08003A031DFF2CEF036F08003A031D4F
:1009EA00FF2C8316240884002E308000A40A0130CC
:1009FA008312EE00ED03A12CFF3083162407840036
:100A0A000008303A031D0B2DA403012DFF302407E3
:100A1A00840000082E3A031D132DA40383126F08C5
:100A2A00003A0319582D8316240884006530800083
:100A3A00A40A803083126F06F0008030003A7002F8
:100A4A000318312D8316240884002D308000A40A4F
:100A5A0083126F08003CEF006F08ED008030093AFE
:100A6A00F00080306F0670020318482D0A30F40037
:100A7A006D08F0004C223030F007831624088400F9
:100A8A0070088000A40A0A30F40083126D08F0008E
:100A9A004C227808F0003030F007831624088400CE
:100AAA0070088000A40A8316240884008001F001DB
:020ABA00080032
:100ABC00013083120313880070300805F1007108AF
:100ACC00003A031D792D0808F000F00D7010700825
:100ADC0088000F300805F1007108003A031D782DCD
:100AEC0001308800622D8230FC00DD30FD00FD0BF2
:100AFC007D2DFC0B7D2D000000007F30080583163A
:100B0C00A900202170088312EC0070300805F10058
:100B1C007108003A0319942D00008B2D8230FC00D3
:100B2C00DD30FD00FD0B982DFC0B982D0000000016
:060B3C006C08F000080047
:100B4200831203137008F800FB01FC019E30F300CE
:100B5200FA01F201F101F0010230FC00C6200800A6
:100B6200831203137408003A031DCC2D7508003A52
:100B7200031DCC2D7608003A031DCC2D7708003AD0
:100B8200031DCC2DFF30F000FF30F1007F30F2006A
:100B9200FF30F300672E83120313770803195B2ECD
:100BA200730803195E2E720876068039FA00F2176E
:100BB200F617A0017208F8007108FC007008FD0029
:100BC2007408FD027508031C750FFC027608031CED
:100BD200760FF802F801FC01FD01031CF72D03104A
:100BE200F20CF10CF00CF80C0130A0007708F302C3
:100BF200031C012E7E302007F3070318612E062EF8
:100C02007E302007F307031C642E1830FA07FD0D0F
:100C1200FC0DF80DF00DF10DF20DA00D7408F002AF
:100C22007508031C750FF1027608031C760FF20299
:100C3200760DA004201C1F2E7D142A2E7408F007A6
:100C420075080318750FF10776080318760AF2077C
:100C52007D10FA031F307A05031D082E7B1B7D1CB5
:100C6200512E0310F00DF10DF20DA00D7408F002DB
:100C72007508031C750FF1027608031C760FF20249
:100C8200760D20040139FD070318FC0A0319F80A3E
:100C9200031D512EF80CFC0CFD0CF30A0319612EF6
:100CA200FA1FF8137808F2007C08F1007D08F000C2
:100CB2000030662E01306D21662E02300320662E32
:0E0CC20004303420662E08300A20000008009E
:0C0CD000831203138030F6069D220800FA
:100CDC0083120313ED01EE016C08F2006C08F300B3
:100CEC00720884000008203A031D812E6D086E04E2
:100CFC00031D812E8E2E0130ED000030EE007208A7
:100D0C0084000008F0007308840070088000F30A67
:100D1C007208F100F20A710884000008003A031D01
:080D2C00762E6C08F0000800AF
:100D3400AC2E803083120313EC00BF2EC030EC00C5
:100D4400BF2E9430EC00BF2ED430EC00BF2E803088
:100D5400EC00BF2E831203136C08013A03199B2E77
:100D64006C08023A0319A02E6C08033A0319A32E47
:100D74006C08043A0319A62EA92E6D03F0006C0822
:100D8400F0077008EC0070088316C4006F204C1044
:100D9400EF016F086E07840000080319DA2E6F084C
:100DA4006E07840000088316A9007721EF0ACB2E72
:040DB4004C140800D3
:100DB8008316031386120612061086100611861172
:100DC8008312861206128611061186100610272035
:100DD8002720272086140614861616208612272018
:100DE8008616162086122720861616208612272099
:100DF80006108616162086122720861616208612BA
:100E08008610861586161620861227208611061447
:100E18008616162086120610861616208612272099
:100E28008616162086120614861616208612272085
:100E380006108616162086128615061586140614C0
:0C0E480086161620861227204C14080085
:100E540070218A110A128000840ACA0A0319CB0A73
:080E6400F003031D2A2F080012
:100E6C0083160313981690308312980083168717F5
:100E7C00071383128C1E452F1A08F0003F2F080011
:100E8C0083120313ED016D086C078400000803192D
:100E9C00582F6D086C07840000088316A900772171
:060EAC00ED0A492F0800C9
:100F040021308400293083120313F0005930CA00C1
:080F14000730CB002A2708007A
:101000008A1182278A150E30831603139F00F03051
:101010008800871707178130990018158A1136271D
:101020008A150330FB008A30FC005530FD00FD0BB3
:101030001728FC0B1728FB0B1728000000008A114B
:10104000DC268A1501308316C4008A116F208A15A8
:101050000130EC000130ED003030EE008A119A26AC
:101060008A151A30FB005E30FC006E30FD00FD0B6F
:101070003728FC0B3728FB0B37280000013083167C
:10108000C4008A116F208A15D601D701D801D90171
:10109000D201D301D401D501CE01CF01D001D101BC
:1010A0000130EC000130ED003B30EE008A119A2651
:1010B0008A158A115E258A157008DA007008233AAD
:1010C000031D6328A2285A082A3A0319A1283030A0
:1010D0005A078316A9008A1177218A150030F0007B
:1010E0000030F1002030F2008230F3004E08F400AE
:1010F0004F08F5005008F6005108F7008A11EB215F
:101100008A157008E8007108E9007208EA0073089F
:10111000EB005A08F0008A11A1258A156808F4002E
:101120006908F5006A08F6006B08F7008A119D222D
:101130008A157008CE007108CF007208D0007308BD
:10114000D10059280230EC000130ED004530EE00AE
:101150008A119A268A158A115E258A157008DA0086
:101160007008233A031DB528F4285A082A3A0319AF
:10117000F32830305A078316A9008A1177218A157F
:101180000030F0000030F1002030F2008230F30037
:101190005208F4005308F5005408F6005508F7000B
:1011A0008A11EB218A157008E8007108E9007208BD
:1011B000EA007308EB005A08F0008A11A1258A158D
:1011C0006808F4006908F5006A08F6006B08F70083
:1011D0008A119D228A157008D2007108D300720806
:1011E000D4007308D500AB2801308316C4008A11DF
:1011F0006F208A152A30DB000130EC000130ED0051
:101200004030EE008A119A268A158A115E258A15C9
:101210007008DA007008233A031D0F293B295A0889
:101220002A3A031D2E295B082A3A031D1A292F305A
:10123000DB002E295B082F3A031D21292B30DB0010
:101240002E295B082B3A031D28292D30DB002E297F
:101250005B082D3A031D2E292A30DB00103083163F
:10126000C4008A116F208A155B088316A9008A11B1
:1012700077218A150529AC294E08F0004F08F100A6
:101280005008F2005108F3005208F4005308F5002A
:101290005408F6005508F7008A11EB218A157008EA
:1012A000D6007108D7007208D8007308D900BC298D
:1012B0005208F4005308F5005408F6005508F700EA
:1012C0004E08F0004F08F1005008F2005108F300FA
:1012D0008A11B1258A157008D6007108D7007208E6
:1012E000D8007308D900BC294E08F0004F08F1005F
:1012F0005008F2005108F3005208F4005308F500BA
:101300005408F6005508F7008A119D228A157008C6
:10131000D6007108D7007208D8007308D900BC291C
:101320005208F4005308F5005408F6005508F70079
:101330004E08F0004F08F1005008F2005108F30089
:101340008A1168268A157008D6007108D7007208BD
:10135000D8007308D900BC295B082A3A03193C2934
:101360005B082F3A031958295B082B3A0319742993
:101370005B082D3A0319902901308316C4008A11A5
:101380006F208A1556088316A0008312570883160B
:10139000A100831258088316A200831259088316ED
:1013A000A3005C30A4008A113D238A155C308312AF
:1013B0000313EC008A116E268A157008CD000130E7
:1013C000EC000130ED002530EE008A119A268A15D6
:1013D0004D08EC008A1146278A157F30FB00D43077
:1013E000FC003130FD00FD0BF329FC0BF329FB0B56
:1013F000F3290000000001308316C4008A116F2019
:061400008A154428022AAF
:080EB2004E3461344E3400346B
:0A0EBA0041346E3473343D340034CB
:040EC4003034003492
:080EC80049344E344634003475
:100ED000433441344C34433455344C344134543429
:060EE0004F3452340034CF
:0A0EE6004E346F3431343A340034D6
:0A0EF0004F3470343A342A340034D1
:0A0EFA004E346F3432343A340034C1
:02400E004A2F37
:00000001FF
