:04000000A5EF08F070
:1000080000C017F001C016F002C015F0F2A403D02A
:10001800556A566AD59EF2A20CD0D58ED6CF55F029
:10002800000E566ED7CF01F0006A005055260150D9
:100038005622D76AD66AF292F29417C000F016C018
:0800480001F015C002F01100E7
:100050000B840BAE33EF00F0010E036E026A016AEF
:0A006000006A0A360232FF0E120099
:08006A00818400008194120062
:0C00720081840000000000008194120056
:08007E000AAE029E000E120002
:0E008600026A016A006A086A036A000E12002C
:100094000B820BAE54EF00F003680268016800683D
:0800A4000A360232FF0E1200C1
:1000AC00070E0001DB6F800EDB19006E800E000A5C
:1000BC00005C1EE3DBC002F0010E006E000E016E50
:1000CC00025005E0003600900136FF0FFAD70050C1
:1000DC00D915026E000E0114036E000E031802E116
:1000EC00000E021802E1BBDF01D0BDDFDB07DBD75E
:1000FC00070EDB6F800EDB19006E800E000A005CB1
:10010C001EE3DBC002F0010E006E000E016E025009
:10011C0005E0003600900136FF0FFAD70050D815D5
:10012C00026E000E0114036E000E031802E1000EA5
:10013C00021802E194DF01D096DFDB07DBD7070E54
:10014C00DB6F800EDB19006E800E000A005C1EE374
:10015C00DBC002F0010E006E000E016E025005E0D5
:10016C00003600900136FF0FFAD70050DA15026EF8
:10017C00000E0114036E000E031802E1000E0218AB
:0E018C0002E16DDF01D06FDFDB07DBD7120071
:10019A000CB00FEF01F00CA2B5EF01F00E6A000EE1
:1001AA00026426EF01F0F00E0214D8A4F1EF00F079
:1001BA00023A01380F0B02260138F00B016E0038A3
:1001CA000F0B01260038F00B006E08380F0B0026C3
:1001DA000838F00B086E0E84D89002BE0AEF01F0C0
:1001EA0008360036013602360E2A02BE0AEF01F040
:1001FA0008360036013602360E2A02BE0AEF01F030
:10020A0008360036013602360E2A0E500364ABEF6A
:10021A0001F0035E0BBC08AEB0EF01F0D880800E8F
:10022A0008640030000E002201220222D8A0B0EF9A
:10023A0001F0023201320032034AB5EF01F0B0EFA9
:10024A0001F001C002F000C001F008C000F0086A25
:10025A00000E0E8602645DEF01F0F00E0214D8A4BF
:10026A0045EF01F0023A01380F0B02260138F00B74
:10027A00016E00380F0B01260038F00B006E0E8459
:10028A00D89002BE0AEF01F00036013602360E2A75
:10029A0002BE0AEF01F00036013602360E2A02BE0D
:1002AA000AEF01F00036013602360E2A0AEF01F093
:1002BA0001C002F000C001F0006A000E0E960E881E
:1002CA0002648AEF01F0F00E0214D8A475EF01F06F
:1002DA00023A01380F0B02260138F00B016E0E8428
:1002EA00D89002BE0AEF01F0013602360E2A02BE8B
:1002FA000AEF01F0013602360E2A02BE0AEF01F0B9
:10030A00013602360E2A0AEF01F001C002F0016A34
:10031A00000E0E860264BAEF01F0F00E0214D8A4A1
:10032A0099EF01F0023A0E84D89002BE0AEF01F06A
:10033A0002360E2A02BE0AEF01F002360E2A02BE69
:10034A000AEF01F002360E2A0AEF01F0010E0C6ED6
:10035A007ADEBDEF01F0020E0C6E8CDEBDEF01F00D
:10036A00040E0C6E92DEBDEF01F0080E0C6E86DEF6
:02037A0012006F
:10037C000B800BAECAEF01F0026A0AAEFF0E026EE2
:0C038C00016E006E0A360232FF0E1200F5
:100398000B6A0A6A096A00500402F4CF09F0F3CF25
:1003A80008F001500502F4CF0BF0F3CF0AF000502B
:1003B8000502F3500926F4500A22E86A0B2201507C
:1003C8000402F3500926F4500A22E86A0B2208C0F6
:1003D80000F009C001F00AC002F00BC003F01200DF
:1003E8000C6A0E6A0250D8A40DEF02F001C002F0A8
:1003F80000C001F0006A0E860250D8A40DEF02F08A
:1004080001C002F0016A0E960E880250D8B41FEFA0
:1004180002F00E50035ED8A4D8A024EF02F0D890C2
:1004280002BE29EF02F0003601360236032E14EF21
:1004380002F024EF02F0010E0C6E21DE2CEF02F028
:10044800020E0C6E01DE2CEF02F0040E0C6E13DEB1
:02045800120090
:08045A000B6A0B86FF0E120075
:10046200030E0001D403F3CFD7F0D56BD66B800E09
:10047200D619006E800E005C02E1D451D55D2DE2EA
:10048200030ED75D006E016A000E015A1F0E002492
:10049200E96E000E0120EA6EEECFD8F0020ED75DB3
:1004A200006E016A000E015A1F0E0024E96E000E52
:1004B2000120EA6EEECFD9F0D705006E016A000E78
:1004C200015A1F0E0024E96E000E0120EA6EEECFE3
:1004D200DAF0EBDDD54BD62BCAD7D4511008D46F46
:1004E200D56BD66B800ED619006E800E005C02E1D1
:1004F200D451D55D07E2D86BD96BDA6BD6DDD54B1B
:06050200D62BF0D7120019
:10050800025006180E6E086A096A0B6A03500764DF
:1005180077EF03F006500A6E068E028E03500B6EBC
:100528000750036E000E0B64C7EF02F00B50075E16
:10053800D8B468EF03F0070E076436EF03F0075EE0
:1005480000C008F001C000F002C001F0026A074EC6
:1005580068EF03F007640BEF03F0075E00C008F0D4
:1005680001C000F0016A074E68EF03F00764E9EF85
:1005780002F0075E00C008F0006A074E68EF03F05B
:100588000764D0EF02F00AC002F005C001F004C011
:1005980000F0086A92EF04F0030E0764DBEF02F044
:1005A800075E08380F0B086E074E68EF03F0D89007
:1005B8000832074E68EF03F0D8900832074E68EF0C
:1005C80003F0D890083268EF03F0030E0764FAEFDF
:1005D80002F0075E08380F0B086E0038F00B08268B
:1005E80000380F0B006E074E68EF03F0D89000320A
:1005F8000832074E68EF03F0D89000320832074EF1
:1006080068EF03F0D8900032083268EF03F0030E69
:10061800076422EF03F0075E08380F0B086E0038F6
:10062800F00B082600380F0B006E0138F00B00267F
:1006380001380F0B016E074E68EF03F0D8900132B6
:1006480000320832074E68EF03F0D89001320032CA
:100658000832074E68EF03F0D890013200320832B2
:1006680068EF03F0030E076453EF03F0075E0838E2
:100678000F0B086E0038F00B082600380F0B006EC1
:100688000138F00B002601380F0B016E0238F00B11
:10069800012602380F0B026E074E68EF03F0D89060
:1006A8000232013200320832074E68EF03F0D89068
:1006B8000232013200320832074E68EF03F0D89058
:1006C8000232013200320832096A000E0EAE5CEFC7
:1006D80004F0081E001E011E021E082A0022012224
:1006E80002225CEF04F00750D8A47DEF03F092EFEC
:1006F80004F0096A02C00AF0028E068E0750035CF5
:10070800076ED8B44FEF04F0070E07641DEF04F02E
:10071800075E0450096E0550046E0650056E066AA1
:10072800074E4FEF04F0070E0764F2EF03F0075E81
:100738000450096E0550046E056A074E4FEF04F029
:10074800070E0764D0EF03F0075E0450096E046AD1
:10075800074E4FEF04F0070E0764B7EF03F00AC027
:1007680002F092EF04F0030E0764C2EF03F0075E95
:1007780009380F0B096E074E4FEF04F0D890093275
:10078800074E4FEF04F0D8900932074E4FEF04F0B0
:10079800D89009324FEF04F0030E0764E1EF03F03D
:1007A800075E09380F0B096E0438F00B0926043868
:1007B8000F0B046E074E4FEF04F0D8900432093245
:1007C800074E4FEF04F0D89004320932074E4FEF2E
:1007D80004F0D890043209324FEF04F0030E076496
:1007E80009EF04F0075E09380F0B096E0438F00BA7
:1007F800092604380F0B046E0538F00B042605385B
:100808000F0B056E074E4FEF04F0D89005320432F7
:100818000932074E4FEF04F0D890053204320932FE
:10082800074E4FEF04F0D8900532043209324FEFEB
:1008380004F0030E07643AEF04F0075E09380F0B63
:10084800096E0438F00B092604380F0B046E0538BE
:10085800F00B042605380F0B056E0638F00B05263D
:1008680006380F0B066E074E4FEF04F0D89006328D
:10087800053204320932074E4FEF04F0D8900632A1
:10088800053204320932074E4FEF04F0D890063291
:10089800053204320932086A000E0EAE5CEF04F02D
:1008A800091E041E051E061E092A04220522062208
:1008B8000950082604500022055001220650022241
:1008C8000EBE73EF04F0D8A082EF04F002320132BA
:1008D80000320832033E82EF04F08CEF04F0D8B007
:1008E80087EF04F0000E081E001E011E021E082AD3
:1008F8000022012202220A7E87EF04F0010E0C6E0C
:1009080048DC94EF04F0020E0C6E43DC94EF04F024
:10091800040E0C6E4AEC00F094EF04F0000E0C6E1E
:020928001200BB
:0C092A00240E0D6E0D2EFED700001200F2
:100936000050086E0150006E016A026A036A0B6A73
:100946000C6A960E036E0A6A00C001F008C000F039
:08095600086A026A46DD120086
:10095E000450000A12E10550000A0FE10650000A89
:10096E000CE10750000A09E1FF0E006EFF0E016E4A
:10097E007F0E026EFF0E036EA7D0086A096A07503B
:10098E00D8B45AEF05F00350D8B45EEF05F002501C
:10099E0006180A6E028E068E0E6A02C008F001C09C
:1009AE000CF000C00DF004500D5E0550D8A0053CB3
:1009BE000C5E0650D8A0063C085E086A0C6A0D6AEA
:1009CE00D8A0F1EF04F0D890023201320032083292
:1009DE00010E0E6E0750035ED8A0FEEF04F07E0EE1
:1009EE000E240326D8B063EF05F004EF05F07E0E5B
:1009FE000E240326D8A068EF05F0180E0B6E0D36E8
:100A0E000C3608360036013602360E360450005EBD
:100A1E000550D8A0053C015E0650D8A0063C025EEB
:100A2E0006340E120EA01FEF05F00D802AEF05F012
:100A3E00045000260550D8B0053C01260650D8B00B
:100A4E00062802260D900B2E06EF05F050EF05F04E
:100A5E00D8900036013602360E360450005E055030
:100A6E00D8A0053C015E0650D8A0063C025E0634B6
:100A7E000E10010B0D26D8B00C2AD8B4082AD8A413
:100A8E0050EF05F008320C320D32032AD8B463EF62
:100A9E0005F00AAE089E0850026E0C50016E0D5005
:100AAE00006E6BEF05F0010ED1DC6BEF05F0020E60
:100ABE0043EC00F06BEF05F0040E4AEC00F06BEF28
:0A0ACE0005F0080E28EC00F01200FD
:100AD8000900F5CFE6FF0006FBE10106F9E1120087
:100AE800C26A1E1C006E0050C116070EC012C08ECE
:100AF800D1C000F000360090003600900050C212BD
:100B0800C2800FDFC282C2A201D0FDD7C4CF01F0DC
:0E0B1800006AC3500012000E0112C2901200BB
:100B26000A6A0350D8A40A800750D8A40A820A5039
:100B3600D8B4F6EF05F0030AD8B4AFEF05F00AB063
:100B4600AAEF05F006AEF4EF05F0F2EF05F002AEFF
:100B5600F2EF05F0F4EF05F00250800B0A6E029EEC
:100B66000650800B069E0A18D8B4C0EF05F00A504E
:100B7600D8B4F2EF05F0F4EF05F00750035CD8B4F3
:100B8600CAEF05F0D8A0E6EF05F0ECEF05F0065049
:100B9600025CD8B4D4EF05F0D8A0E6EF05F0ECEF90
:100BA60005F00550015CD8B4DEEF05F0D8A0E6EFFD
:100BB60005F0ECEF05F00450005CD8B4F6EF05F054
:100BC600D8B0ECEF05F00A52D8B4F4EF05F0F2EF26
:100BD60005F00A52D8B4F2EF05F0F4EF05F0D8802C
:0E0BE6001200D8901200D880D884120012009D
:060BF400067E88DC120001
:100BFA000B6A0350D8B443EF06F002500A6E028E15
:100C0A008E0E035E03AE47EF06F0036C080E035C1C
:100C1A00D8A022EF06F0036E013602C001F0026A84
:100C2A00080E035CD8A022EF06F0036E0136016AB3
:100C3A000350D8A4D8902CEF06F00350D8B42CEF68
:100C4A0006F0D89002320132032E26EF06F00BBCD2
:100C5A0001A039EF06F0D8A039EF06F0012AD8B47E
:100C6A00022A02BE56EF06F00AAE5CEF06F0021E3A
:100C7A00011E012AD8B4022A5CEF06F0026A016A50
:100C8A005CEF06F00B800BAE60EF06F0026A0AAE6C
:100C9A0060EF06F0FF0E026E016E0A36023260EF56
:100CAA0006F0010E0C6EBEEC01F062EF06F0000ECB
:100CBA000C6E62EF06F0FF0E0C6E0150006E0250D1
:040CCA00016E1200A5
:100CCE000001B96BBA6B800EBA19006E800E005C13
:100CDE0002E1930EB95DD8B07CD0B4C0D1F0B5C0EE
:100CEE00D2F0B6C0D3F0B76BB86B800EB819006EE9
:100CFE00800E005C02E12D0EB75D1FE2B7512F088A
:100D0E00006EB8C001F0000E0156870E0024E16E91
:100D1E00000E0120E26EB7512C08006EB8C001F033
:100D2E00000E0156870E0024E96E000E0120EA6EB9
:100D3E00EECFE6FFB74BB82BD8D7D1C087F0D2C0D5
:100D4E0088F0D3C089F0B76BB86B800EB819006EFF
:100D5E00800E005C02E1300EB75D2BE2870EB725E8
:100D6E00E96E000EB821EA6EEECFD8F0010EB7256F
:100D7E00006E000EB821016E870E0024E96E000E83
:100D8E000120EA6EEECFD9F0020EB725006E000EEE
:100D9E00B821016E870E0024E96E000E0120EA6E66
:100DAE00EECFDAF056EC00F0030EB727000EB823A4
:100DBE00CCD7020E0B6E040E0C6EBA0E0D6E0D2EEF
:100DCE00FED70C2EFCD70B2EFAD70000B94BBA2B40
:100DDE007AD7010EB96F000EBA6F800EBA19006E77
:100DEE00800E005C02E1110EB95D2DE2B76BB86B9F
:100DFE00030E006E000E016EB9C004F0BAC005F00D
:100E0E00CCEC01F0800EB819026E800E0118025C57
:100E1E0002E10050B75D0AE2D86BD96BDA6B56EC83
:100E2E0000F0030EB727000EB823E2D7820E0C6E29
:100E3E00DD0E0D6E0D2EFED70C2EFCD70000000021
:100E4E00B94BBA2BCAD7090E0B6EE10E0C6EB20E51
:100E5E000D6E0D2EFED70C2EFCD70B2EFAD70000E2
:100E6E00010EB96F000EBA6F800EBA19006E800EA9
:100E7E00005C02E1110EB95D14E2B9C0D4F031ECA0
:100E8E0002F0030E0B6E490E0C6E660E0D6E0D2EDD
:100E9E00FED70C2EFCD70B2EFAD70000B94BBA2B6F
:100EAE00E3D71A0E0B6E5E0E0C6E6E0E0D6E0D2EC1
:100EBE00FED70C2EFCD70B2EFAD700000F0EB96FF3
:100ECE00000EBA6F7F0E006E800EBA19005C02E142
:100EDE00B951FF0816E2B9C0D4F031EC02F0030E9E
:100EEE000B6E490E0C6E660E0D6E0D2EFED70C2E71
:100EFE00FCD70B2EFAD70000010EB95F000EBA5BBD
:040F0E00E1D7120015
:100F1200FF0E0001C76FFF0EC86FFF0EC96FFF0EF5
:100F2200CA6FFF0ECB6FFF0ECC6F000ECD6F000E9F
:100F3200CE6FFF0EBF6FFF0EC06F000EC16F000EAF
:100F4200C26FFF0EBB6FFF0EBC6F000EBD6F000EB7
:100F5200BE6FAC8A900EAB6E948E949C9EAA03D008
:080F6200AECF00F0FBD7120036
:100F6A0000C008F00B6A0C6A9E0E036E0A6A026AD7
:0E0F7A00016A006A020E0C6ECDEC00F012004F
:100F8800086A096A000E0762036449EF08F0025014
:100F980006180A6E075003267E0ED8A0DAEF07F06F
:100FA800035ED8B04EEF08F0DEEF07F0035ED8A07E
:100FB80053EF08F0028E068E02C00EF001C00BF04F
:100FC80000C00DF000500402F4CF0CF001500502EF
:100FD800F4CF00F0F3CF08F00402F3500C26F450DD
:100FE8000822000E00220D500502F3500C26F45082
:100FF8000822000E002202500402F3500826F45082
:10100800002202500502016A000E0122F350002658
:10101800F45001220D500602F3500826F450002225
:10102800026A000E012202220B500602F35000262B
:10103800F4500122000E02220E500602F35001263F
:10104800F450022202BE31EF08F0083600360136AD
:1010580002360306D8B453EF08F044EF08F0D880FE
:10106800800E08640030000E002201220222D8A05F
:1010780044EF08F0023201320032034A4EEF08F022
:101088000AAE029E000E56EF08F0010E43EC00F087
:1010980056EF08F0020E4AEC00F056EF08F0040E86
:0610A80028EC00F012002C
:1010AE000B6A0C6A0A6A0350D8B48CEF08F00A9ED9
:1010BE00028E860E035E03BE6AEF08F0D8B46AEFA6
:1010CE0008F08FEF08F0036C080E035CD8A078EFE1
:1010DE0008F0036E0236026A0350D8A4D89081EF4E
:1010EE0008F00350D8B481EF08F0D8900232032EE6
:1010FE007CEF08F00BBC02A08CEF08F0D8A08CEFB0
:10110E0008F0022AD8B496EF08F0016A9CEF08F0B6
:10111E000B800BAEA0EF08F0016AA0EF08F0010EF5
:10112E000C6EBEEC01F0A2EF08F0000E0C6EA2EFFA
:0C113E0008F0FF0E0C6E0250006E120054
:10114A00A1EC0AF00E0EC16E928093948194938062
:10115A00070E0C6E7D0E0D6E0D2EFED70C2EFCD7D3
:10116A00010E0001B96F000EBA6F800EBA19006E37
:10117A00800E005C02E1110EB95D08E2D86BD96BF2
:10118A00DA6B56EC00F0B94BBA2BEFD7070E0C6EA0
:10119A007D0E0D6E0D2EFED70C2EFCD7D16B9FDC6B
:1011AA009BEC04F0000E046EC00E056E7F0E066EF8
:1011BA00880E076EAFEC04F000C0C3F001C0C4F0A3
:1011CA0002C0C5F003C0C6F00001B96BBA6B800E4D
:1011DA00BA19006E800E005C02E1300EB95D26E29B
:1011EA001F0EB925CF6F000EBA21D06F570EB92541
:1011FA00006E000EBA21016E00C0E9FF01C0EAFFCD
:10120A00EECF00F0ADDEC3C004F0C4C005F0C5C027
:10121A0006F0C6C007F0B3DE45DFCFC0E1FFD0C09D
:10122A00E2FF00C0E6FFB94BBA2BD1D74BDD948E53
:10123A00948CB886020EB06E080EAF6EAC8464DE73
:10124A00030E0B6E8A0E0C6E550E0D6E0D2EFED70A
:10125A000C2EFCD70B2EFAD700000000F00EF26E0F
:10126A00F18C060ED56ED58E000E561802E1000ED0
:10127A00551833E055C000F056C001F09BEC04F05D
:10128A00CD0E046ECC0E056E4C0E066E830E076EE6
:10129A0076DE00C004F001C005F002C006F003C00B
:1012AA0007F0000E006E240E016E740E026E920E8E
:1012BA00036EAFEC04F0000E046E000E056E700EA5
:1012CA00066E840E076E5BDE00C01AF001C01BF0CA
:1012DA0002C01CF003C01DF004D01A6A1B6A1C6A03
:1012EA001D6A0001D16B74EC05F09BEC04F0000E52
:1012FA00046EC00E056E7F0E066E880E076EAFEC8A
:10130A0004F000C0C3F001C0C4F002C0C5F003C0BD
:10131A00C6F00001B96BBA6B800EBA19006E800E66
:10132A00005C02E1300EB95D26E21F0EB925CF6FCF
:10133A00000EBA21D06F570EB925006E000EBA21E1
:10134A00016E00C0E9FF01C0EAFFEECF00F008DE3F
:10135A00C3C004F0C4C005F0C5C006F0C6C007F09B
:10136A000EDEA0DECFC0E1FFD0C0E2FF00C0E6FF84
:10137A00B94BBA2BD1D7000E046E000E056E7A0E49
:10138A00066E860E076E1AC000F01BC001F01CC064
:10139A0002F01DC003F0AFEC04F02ADC00C018F024
:1013AA0001C019F0800E026E800E0118025C02E183
:1013BA000050100804E2100E186E000E196E195033
:1013CA00501802E14F50181855E151C004F052C0AC
:1013DA0005F053C006F054C007F0C3C000F0C4C003
:1013EA0001F0C5C002F0C6C003F0FAEC05F000C077
:1013FA0004F001C005F002C006F003C007F0CD0EEC
:10140A00006ECC0E016E4C0E026E7B0E036E93ECD8
:10141A0005F0010ED8B0000E006E00522BE1C3C0D9
:10142A0004F0C4C005F0C5C006F0C6C007F051C03C
:10143A0000F052C001F053C002F054C003F0FAECBD
:10144A0005F000C004F001C005F002C006F003C0B8
:10145A0007F0CD0E006ECC0E016E4C0E026E7B0EA6
:10146A00036E93EC05F0010ED8B0000E006E005228
:10147A0001E110D018C0D4F031EC02F018C04FF0DE
:10148A0019C050F0C3C051F0C4C052F0C5C053F0E7
:08149A00C6C054F0E9D6FFD7EB
:1015420010EE18F09F0E006E010E016EA20EF66EE6
:0E155200140EF76E000EF86E6CEC05F0120031
:0214A200000048
:0414A4000000000044
:0114A8003013
:1014A90000FF000AF50014EB001EE10032CD003CFC
:1014B900C300649B00A05F00BE4100D22D00E11E65
:1014C90000EB1400F50A00FF0000FF0000FF000018
:0214D900000011
:0414DB00000000000D
:0214DF0000000B
:1014E10000FF000AF50014EB001EE10032CD003CC4
:1014F100C300649B00A05F00BE4100D22D00E11E2D
:1015010000EB1400F50A00FF0000FF0000FF0000DF
:10151100FF0000FF0000FF1E00C83700B946006948
:10152100960037C80000FF0000C83700AF500064C4
:101531009B0032CD0000FFC80037E60019FA000514
:020000040030CA
:0D000100021F1EFF8381FF0FC00FE00F40A4
:00000001FF
