:0400000007EF09F00D
:1000080000C01BF001C01AF002C019F003C018F0BC
:100018000AC017F00BC016F00CC015F0060ED66E0D
:10002800F2941CC000F0000E016E003600900136FC
:10003800003600900136250E0024E96E000E0120DE
:10004800EA6EEECF00F0EECF01F0EECF02F0EECF89
:1000580003F00FEC07F000C0CDF101C0CEF17DEC4C
:1000680007F01C2A1C50640AD8B41C6A1BC000F094
:100078001AC001F019C002F018C003F017C00AF046
:0A00880016C00BF015C00CF01100BB
:080092000AAE029E000E1200EE
:10009A000B820BAE57EF00F0036802680168006834
:0800AA000A360232FF0E1200BB
:0E00B200026A016A006A086A036A000E120000
:1000C0000B840BAE6BEF00F0010E036E026A016A47
:0A00D000006A0A360232FF0E120029
:1000DA000CB0AFEF00F00CA255EF01F00E6A000E63
:1000EA000264C6EF00F0F00E0214D8A491EF00F0FB
:1000FA00023A01380F0B02260138F00B016E003864
:10010A000F0B01260038F00B006E08380F0B002683
:10011A000838F00B086E0E84D89002BEAAEF00F0E1
:10012A0008360036013602360E2A02BEAAEF00F061
:10013A0008360036013602360E2A02BEAAEF00F051
:10014A0008360036013602360E2A0E5003644BEF8B
:10015A0001F0035E0BBC08AE50EF01F0D880800EB0
:10016A0008640030000E002201220222D8A050EFBB
:10017A0001F0023201320032034A55EF01F050EF2A
:10018A0001F001C002F000C001F008C000F0086AE6
:10019A00000E0E860264FDEF00F0F00E0214D8A4E1
:1001AA00E5EF00F0023A01380F0B02260138F00B96
:1001BA00016E00380F0B01260038F00B006E0E841A
:1001CA00D89002BEAAEF00F00036013602360E2A97
:1001DA0002BEAAEF00F00036013602360E2A02BE2F
:1001EA00AAEF00F00036013602360E2AAAEF00F016
:1001FA0001C002F000C001F0006A000E0E960E88DF
:10020A0002642AEF01F0F00E0214D8A415EF01F0EF
:10021A00023A01380F0B02260138F00B016E0E84E8
:10022A00D89002BEAAEF00F0013602360E2A02BEAC
:10023A00AAEF00F0013602360E2A02BEAAEF00F03B
:10024A00013602360E2AAAEF00F001C002F0016A56
:10025A00000E0E8602645AEF01F0F00E0214D8A4C2
:10026A0039EF01F0023A0E84D89002BEAAEF00F0EC
:10027A0002360E2A02BEAAEF00F002360E2A02BE8B
:10028A00AAEF00F002360E2AAAEF00F0010E0C6E59
:10029A0012DF5DEF01F0020E0C6EF6DE5DEF01F08B
:1002AA00040E0C6EF5DE5DEF01F0080E0C6EFCDE3E
:0202BA00120030
:1002BC00025006180E6E086A096A0B6A035007642E
:1002CC0051EF02F006500A6E068E028E03500B6E32
:1002DC000750036E000E0B64A1EF01F00B50075E8C
:1002EC00D8B442EF02F0070E076410EF02F0075E7D
:1002FC0000C008F001C000F002C001F0026A074E15
:10030C0042EF02F00764E5EF01F0075E00C008F071
:10031C0001C000F0016A074E42EF02F00764C3EF20
:10032C0001F0075E00C008F0006A074E42EF02F0D1
:10033C000764AAEF01F00AC002F005C001F004C086
:10034C0000F0086A6BEF03F0030E0764B5EF01F0E1
:10035C00075E08380F0B086E074E42EF02F0D8907C
:10036C000832074E42EF02F0D8900832074E42EFA7
:10037C0002F0D890083242EF02F0030E0764D4EF7B
:10038C0001F0075E08380F0B086E0038F00B0826DA
:10039C0000380F0B006E074E42EF02F0D89000327F
:1003AC000832074E42EF02F0D89000320832074E66
:1003BC0042EF02F0D8900032083242EF02F0030E06
:1003CC000764FCEF01F0075E08380F0B086E00386D
:1003DC00F00B082600380F0B006E0138F00B0026CE
:1003EC0001380F0B016E074E42EF02F0D89001322C
:1003FC0000320832074E42EF02F0D8900132003240
:10040C000832074E42EF02F0D89001320032083227
:10041C0042EF02F0030E07642DEF02F0075E08387E
:10042C000F0B086E0038F00B082600380F0B006E0F
:10043C000138F00B002601380F0B016E0238F00B5F
:10044C00012602380F0B026E074E42EF02F0D890D5
:10045C000232013200320832074E42EF02F0D890DD
:10046C000232013200320832074E42EF02F0D890CD
:10047C000232013200320832096A000E0EAE36EF3B
:10048C0003F0081E001E011E021E082A0022012273
:10049C00022236EF03F00750D8A457EF02F06BEFAF
:1004AC0003F0096A02C00AF0028E068E0750035C44
:1004BC00076ED8B429EF03F0070E0764F7EF02F0CC
:1004CC00075E0450096E0550046E0650056E066AF0
:1004DC00074E29EF03F0070E0764CCEF02F0075E1E
:1004EC000450096E0550046E056A074E29EF03F09F
:1004FC00070E0764AAEF02F0075E0450096E046A47
:10050C00074E29EF03F0070E076491EF02F00AC0C3
:10051C0002F06BEF03F0030E07649CEF02F0075E32
:10052C0009380F0B096E074E29EF03F0D8900932EA
:10053C00074E29EF03F0D8900932074E29EF03F04C
:10054C00D890093229EF03F0030E0764BBEF02F0D9
:10055C00075E09380F0B096E0438F00B09260438B6
:10056C000F0B046E074E29EF03F0D89004320932BA
:10057C00074E29EF03F0D89004320932074E29EFC9
:10058C0003F0D8900432093229EF03F0030E07640C
:10059C00E3EF02F0075E09380F0B096E0438F00B1D
:1005AC00092604380F0B046E0538F00B04260538A9
:1005BC000F0B056E074E29EF03F0D890053204326D
:1005CC000932074E29EF03F0D89005320432093274
:1005DC00074E29EF03F0D89005320432093229EF87
:1005EC0003F0030E076414EF03F0075E09380F0BDA
:1005FC00096E0438F00B092604380F0B046E05380D
:10060C00F00B042605380F0B056E0638F00B05268B
:10061C0006380F0B066E074E29EF03F0D890063202
:10062C00053204320932074E29EF03F0D890063216
:10063C00053204320932074E29EF03F0D890063206
:10064C00053204320932086A000E0EAE36EF03F0A2
:10065C00091E041E051E061E092A04220522062256
:10066C00095008260450002205500122065002228F
:10067C000EBE4DEF03F0D8A05CEF03F00232013256
:10068C0000320832033E5CEF03F066EF03F0D8B0A3
:10069C0061EF03F0000E081E001E011E021E082A48
:1006AC000022012202220A7E61EF03F0010E0C6E81
:1006BC000EDD6DEF03F0020E0C6E09DD6DEF03F035
:1006CC00040E0C6EE4DC6DEF03F0000E0C6E1200E9
:1006DC000B800BAE7AEF03F0026A0AAEFF0E026ECD
:0C06EC00016E006E0A360232FF0E120092
:0806F8000B6A0B86FF0E1200D5
:100700000A6A0350D8A40A800750D8A40A820A5063
:10071000D8B4E3EF03F0030AD8B49CEF03F00AB0B7
:1007200097EF03F006AEE1EF03F0DFEF03F002AE68
:10073000DFEF03F0E1EF03F00250800B0A6E029E40
:100740000650800B069E0A18D8B4ADEF03F00A508D
:10075000D8B4DFEF03F0E1EF03F00750035CD8B447
:10076000B7EF03F0D8A0D3EF03F0D9EF03F00650B2
:10077000025CD8B4C1EF03F0D8A0D3EF03F0D9EFF7
:1007800003F00550015CD8B4CBEF03F0D8A0D3EF51
:1007900003F0D9EF03F00450005CD8B4E3EF03F0AA
:1007A000D8B0D9EF03F00A52D8B4E1EF03F0DFEF8D
:1007B00003F00A52D8B4DFEF03F0E1EF03F0D88082
:0E07C0001200D8901200D880D88412001200C7
:1007CE00086A096A000E076203646CEF04F00250B7
:1007DE0006180A6E075003267E0ED8A0FDEF03F012
:1007EE00035ED8B071EF04F001EF04F0035ED8A001
:1007FE0076EF04F0028E068E02C00EF001C00BF0F2
:10080E0000C00DF000500402F4CF0CF001500502B0
:10081E00F4CF00F0F3CF08F00402F3500C26F4509E
:10082E000822000E00220D500502F3500C26F45043
:10083E000822000E002202500402F3500826F45043
:10084E00002202500502016A000E0122F35000261A
:10085E00F45001220D500602F3500826F4500022E7
:10086E00026A000E012202220B500602F3500026ED
:10087E00F4500122000E02220E500602F350012601
:10088E00F450022202BE54EF04F008360036013650
:10089E0002360306D8B476EF04F067EF04F0D88082
:1008AE00800E08640030000E002201220222D8A021
:1008BE0067EF04F0023201320032034A71EF04F0A6
:1008CE000AAE029E000E79EF04F0010E59EC00F014
:1008DE0079EF04F0020E4DEC00F079EF04F0040E07
:0608EE0060EC00F01200B6
:1008F4000B6A0C6A086A0350D8B4FEEF04F002C015
:100904000AF0028E9E0E035E03AEEEEF04F0036C5B
:10091400080E035CD8A0BBEF04F0036E083600C0D9
:1009240008F001C000F002C001F0026A080E035C86
:10093400D8A0BBEF04F0036E083600C008F001C075
:1009440000F0016A080E035CD8A0BBEF04F0036E4C
:10095400083600C008F0006A080E035CD8A0BBEF9C
:1009640004F0036E0836086A0350D8A4D890C7EF81
:1009740004F00350D8B4C7EF04F0D8900232013227
:1009840000320832032EBFEF04F00BBC08A0D8EFEE
:1009940004F0D8A0D8EF04F0082AD8B4002AD8B4B8
:1009A400012AD8B4022A02BE02EF05F00AAEFEEF15
:1009B40004F0021E011E001E081E082AD8B4002AD4
:1009C400D8B4012AD8B4022AFEEF04F0026A016AFC
:1009D400006A086AFEEF04F00B800BAE08EF05F026
:1009E400026A0AAE08EF05F0026E016E006E086E30
:1009F4000A36023208EF05F00C6A000E09EF05F022
:100A0400010E0C6E000E68DE09EF05F0FF0E0250B9
:100A1400036E0150026E0050016E0850006E120009
:100A24000050086E0150006E0250016E0350026EB9
:100A3400036A0B6A0C6A9E0E036E0A6A02AE2FEFFB
:100A440005F0081E001E011E021E082AD8B4002A42
:100A5400D8B4012AD8B4022A0A8E020E0C6E6DECA8
:040A640000F012008C
:060A6800067E28DC1200EE
:100A6E00C3C100F0016A026A036AFF0E0016000E8F
:100A7E00011600C0C8F101C0C9F17F0E005C026E04
:100A8E00000E0158036E02C0C8F103C0C9F1800EFA
:100A9E000318006E800E005C02E1000E025C21E283
:100AAE00046A056A066A076AC0C100F0C1C101F096
:100ABE00C2C102F0C3C103F01CDE010ED8B0000E9D
:100ACE00006E005209E0000E006E000E016E800EE8
:100ADE00026E7F0E036E58D0006A016A026A036AC4
:100AEE0053D00101C951000802E1C851180809E2AA
:100AFE00C0C100F0C1C101F0C2C102F0C3C103F018
:100B0E0043D0C0C100F0C1C101F0C2C102F0C3C1E7
:100B1E0003F0E9DE80DF00C0C4F101C0C5F102C000
:100B2E00C6F103C0C7F100C004F001C005F002C059
:100B3E0006F003C007F0C0C100F0C1C101F0C2C190
:100B4E0002F0C3C103F0D5DD010ED8B0000E006E69
:100B5E00005212E0000E046E000E056E000E066EC0
:100B6E007F0E076EC4C100F0C5C101F0C6C102F010
:100B7E00C7C103F072DF08D0C4C100F0C5C101F0D7
:0A0B8E00C6C102F0C7C103F0120057
:100B9800CFC1C9FFC7B002D00000FCD7C9CF00F051
:020BA800120039
:100BAA000450000A12E10550000A0FE10650000A3B
:100BBA000CE10750000A09E1FF0E006EFF0E016EFC
:100BCA007F0E026EFF0E036EA7D0086A096A0750ED
:100BDA00D8B480EF06F00350D8B484EF06F0025080
:100BEA0006180A6E028E068E0E6A02C008F001C04E
:100BFA000CF000C00DF004500D5E0550D8A0053C65
:100C0A000C5E0650D8A0063C085E086A0C6A0D6A9B
:100C1A00D8A017EF06F0D89002320132003208321B
:100C2A00010E0E6E0750035ED8A024EF06F07E0E6A
:100C3A000E240326D8B089EF06F02AEF06F07E0EBE
:100C4A000E240326D8A08EEF06F0180E0B6E0D3672
:100C5A000C3608360036013602360E360450005E6F
:100C6A000550D8A0053C015E0650D8A0063C025E9D
:100C7A0006340E120EA045EF06F00D8050EF06F076
:100C8A00045000260550D8B0053C01260650D8B0BD
:100C9A00062802260D900B2E2CEF06F076EF06F0B2
:100CAA00D8900036013602360E360450005E0550E2
:100CBA00D8A0053C015E0650D8A0063C025E063468
:100CCA000E10010B0D26D8B00C2AD8B4082AD8A4C5
:100CDA0076EF06F008320C320D32032AD8B489EFC7
:100CEA0006F00AAE089E0850026E0C50016E0D50B6
:100CFA00006E91EF06F0010EFADC91EF06F0020E9B
:100D0A0059EC00F091EF06F0040E4DEC00F091EF73
:0A0D1A0006F0080E60EC00F0120075
:100D2400C7C100F0C8C101F0000E0101C8BFFF0E29
:100D3400026E036E0036009001360236033600362A
:100D44000090013602360336C4510024F66EC551B4
:100D54000120F76EC6510220F86E0900F5CFC9F1E3
:100D64000900F5CFCAF10900F5CFCBF10900F5CFA1
:100D7400CCF1C751C81148E0C0C100F0C1C101F0B5
:100D8400C2C102F0C3C103F0C9C104F0CAC105F075
:100D9400CBC106F0CCC107F018DD010EC75F000E11
:100DA400C85BC7C104F0C8C105F0000EC8BFFF0E80
:100DB400066E076E0436049005360636073604368A
:100DC4000490053606360736C4510424F66EC55120
:100DD4000520F76EC6510620F86E0900F5CF04F021
:100DE4000900F5CF05F00900F5CF06F00900F5CFAD
:100DF40007F05EEC01F000C0C9F101C0CAF102C005
:100E0400CBF103C0CCF1B5D7C9C100F0CAC101F020
:0A0E1400CBC102F0CCC103F01200C4
:100E1E000B6A0C6A0A6A0350D8B459EF07F0028EB7
:100E2E008E0E035E03BE21EF07F0D8B421EF07F05C
:100E3E005DEF07F0036C080E035CD8A038EF07F0E7
:100E4E00036E013602C001F0026A080E035CD8A0E0
:100E5E0038EF07F00136016A0350D8A4D89042EF5C
:100E6E0007F00350D8B442EF07F0D89002320132A7
:100E7E00032E3CEF07F00BBC01A04FEF07F0D8A0FC
:100E8E004FEF07F0012AD8B4022A02BE6CEF07F02A
:100E9E000AAE72EF07F0021E011E012AD8B4022A12
:100EAE0072EF07F0026A016A72EF07F00B800BAE69
:100EBE0076EF07F0026A0AAE76EF07F0FF0E026ECB
:100ECE00016E0A36023276EF07F0010E0C6E6EECF2
:100EDE0003F078EF07F0000E0C6E78EF07F0FF0EC0
:0C0EEE000C6E0150006E0250016E1200EC
:100EFA008290CEC100F0016A0F0E00140101CF6F7B
:100F0A00300ECF1344DECDC1CFF141DE8280120014
:100F1A000900F5CFE6FF0006FBE10106F9E1120040
:100F2A000101BF6B046A056A066A076AB7C100F065
:100F3A00B8C101F0B9C102F0BAC103F080EC03F004
:100F4A00010ED8B0000E006E005203E0B97F010E08
:100F5A00BF6FB7C100F0B8C101F0B9C102F0BAC1A0
:100F6A0003F0830E046EF90E056E220E066E7C0ED9
:100F7A00076E28DC00C0B7F101C0B8F102C0B9F1B0
:100F8A0003C0BAF100C0C0F101C0C1F102C0C2F190
:100F9A0003C0C3F167DD00C004F001C005F002C060
:100FAA0006F003C007F0B7C100F0B8C101F0B9C13B
:100FBA0002F0BAC103F053DD000E046E000E056E96
:100FCA00000E066E810E076EE7EC03F000C0B7F163
:100FDA0001C0B8F102C0B9F103C0BAF100C004F00F
:100FEA0001C005F002C006F003C007F0000E006E53
:100FFA00000E016E000E026E800E036E80EC03F08E
:10100A00010ED8B0000E006E00521FE0000E046EF2
:10101A00000E056E000E066E800E076EB7C100F058
:10102A00B8C101F0B9C102F0BAC103F018DD00C0BD
:10103A00B7F101C0B8F102C0B9F103C0BAF10101B8
:10104A00BF53010ED8A4000EBF6FB7C104F0B8C1D8
:10105A0005F0B9C106F0BAC107F0000E006E000E25
:10106A00016E000E026E7F0E036E80EC03F0010E1D
:10107A00D8B0000E006E005219E0B7C104F0B8C132
:10108A0005F0B9C106F0BAC107F0000E006E000EF5
:10109A00016E000E026E800E036EE1DC00C0B7F135
:1010AA0001C0B8F102C0B9F103C0BAF10101B7C178
:1010BA0000F0B8C101F0B9C102F0BAC103F0B7C17A
:1010CA0004F0B8C105F0B9C106F0BAC107F0E7ECFF
:1010DA0003F000C0BBF101C0BCF102C0BDF103C006
:1010EA00BEF100C0C0F101C0C1F102C0C2F103C02B
:1010FA00C3F1C80EC46F120EC56F000EC66F040E80
:10110A00C76F000EC86F09DEB7C104F0B8C105F099
:10111A00B9C106F0BAC107F0E7EC03F000C0B7F1B5
:10112A0001C0B8F102C0B9F103C0BAF1BBC1C0F144
:10113A00BCC1C1F1BDC1C2F1BEC1C3F1DC0EC46FF5
:10114A00120EC56F000EC66F030EC76F000EC86F72
:10115A00E4DD00C004F001C005F002C006F003C0DF
:10116A0007F0B7C100F0B8C101F0B9C102F0BAC1C5
:10117A0003F016DD00C0B7F101C0B8F102C0B9F141
:10118A0003C0BAF10101BF530DE0000EB719006E9A
:10119A00000EB819016E800EB919026E000EBA1946
:1011AA00036E08D0B7C100F0B8C101F0B9C102F0AE
:0611BA00BAC103F01200AF
:1011C000FF0E216EFF0E226EFF0E236EFF0E246EA9
:1011D000980E1D6E0B0E1E6ECF0E1F6E010E206E32
:1011E000949A94969488C66A400EC76EC68A120076
:1011F00000C008F00B6A0C6A9E0E036E0A6A026A4F
:0E120000016A006A020E0C6E6DEC00F0120026
:10120E001C6A949A9496828094900F0EC16E1C6AFA
:10121E00640E1C5C49E21CC000F0000E016E00362C
:10122E0000900136003600900136250E0024010193
:10123E00B56F000E0120B66F1CC000F0D2DF490E54
:10124E00046E9D0E056E000E066E7B0E076EE7ECAD
:10125E0003F000C0B7F101C0B8F102C0B9F103C08C
:10126E00BAF15CDE000E046EC00E056E4C0E066EFC
:10127E00890E076EE7EC03F0000E046E000E056E8D
:10128E00000E066E8A0E076E5EEC01F0B5C1E1FF30
:10129E00B6C1E2FF00C0E6FF01C0E6FF02C0E6FFF6
:1012AE0003C0E6FF1C2AB4D7C10ED56E060ED66E4D
:0A12BE00A00EF26E7EDFFFD7FFD70F
:1012C800ECF34A903595958F17C15C8BFDDBED8665
:0412D80072B333803A
:1012DC002B3401907F9D308BE7FF59850000007FF8
:020000040030CA
:0D000100021F1EFF8381FF0FC00FE00F40A4
:00000001FF
