:0400000005EF01F017
:1000080000C016F001C015F0F2A4A1D0F2949E0E23
:10001800D66EE80E046E030E056E18C000F019C007
:1000280001F09FD808C000F009C001F000C020F01E
:1000380001C021F0640E046E000E056E20C000F0B1
:1000480021C001F08ED808C000F009C001F000C03E
:100058001EF001C01FF00A0E046E000E056E1EC0D1
:1000680000F01FC001F07DD808C000F009C001F001
:1000780000C01CF00A0E046E000E056E1EC000F0D3
:100088001FC001F06ED800C01DF0640E046E000E93
:10009800056E20C000F021C001F063D800C01AF03E
:1000A800E80E046E030E056E18C000F019C001F0CA
:1000B80058D800C01BF0849084928494829E34D0D7
:1000C8001CC022F0000E236E010E246E65D838D0B5
:1000D8001D50000A07E11A50000A04E11B50000AEB
:1000E80001E107D01DC022F0000E236E020E246E1F
:1000F80053D826D01A50000A04E11B50000A01E127
:1001080007D01AC022F0000E236E030E246E44D8C6
:1001180017D01B50000A07E01BC022F0000E236E08
:10012800040E246E39D80CD01750010AC9E01750B4
:10013800020ACEE01750030ADDE01750040AE9E08E
:10014800172A1750050A02E1010E176E05D0F2A210
:1001580003D0184A192AF29216C000F015C001F00F
:02016800110084
:10016A00086A096A100E0C6E013408360936045002
:10017A00085E0550D8A0053C095ED8B007D00450E7
:10018A0008260550D8B0053C0926D8900036013615
:06019A000C2EEAD7120052
:1001A0003F0E256E060E266E5B0E276E4F0E286ED6
:1001B000660E296E6D0E2A6E7D0E2B6E070E2C6E4E
:1001C0007F0E2D6E6F0E2E6E250E2224E96E000E10
:1001D0002320EA6EEECF83FF2450010AD8B4848036
:1001E0002450020AD8B484822450030AD8B48484E8
:0A01F0002450040AD8B4828E1200D5
:1001FA000900F5CFE6FF0006FBE10106F9E112006E
:10020A00010E176E010E186E040E196EF28A0F0E89
:10021A00C16E956A969096929694949E9380C70E14
:0E022A00D56E9E0ED66EB00EF26EFFD7FFD7C9
:020000040030CA
:0D000100021F1EFF8381FF0FC00FE00F40A4
:00000001FF
