:02000000EF29E6
:10000800FF00030E8301C4000A08C5008A018C1092
:100018000130B50045088A00440E8300FF0E7F0EAC
:020028000900CD
:0C002A00000000000000000000000800C2
:10003600243083120313FC00B530FD00FD0B21288C
:0A004600FC0B212800000000080058
:0E005000533083120313FD00FD0B2C28080013
:10005E0083120313D31B3528861136288615531B9E
:10006E003A2806113B280615D31A3F288610402839
:10007E008614531A44280610452806144218492897
:10008E0006164A280612861615208612D3195128EE
:10009E00861152288615531956280611572806150B
:1000AE00D3185B2886105C28861453186028061017
:1000BE00612806144218652806166628061286164A
:1000CE0015208612421C6D281B206E282820080041
:1000DE0083120313F8010830FC00700DF80D74083C
:1000EE00F80203187C28F8070310F00DFC0B742897
:0200FE000800F8
:100100008312031342105208D3002F204214080018
:0E0110008312031341088A0040088200080091
:10011E0083120313D0010330500203189D28500898
:10012E004F07840020308000D00A922850084F07D5
:10013E0084008001D00350084F07D1000A30F4002C
:10014E004E08F0006F207808F0003030F0075108AC
:10015E008400700880000A30F4004E08F0006F2012
:10016E007008CE007008003A031DBE28C028D003C8
:04017E00A2280800AB
:1001820083160313861206120610861006118611B4
:1001920083128612061286110611861006101B2083
:1001A2001B201B20861406148616152086121B207F
:1001B2008616152086121B208616152086121B20F5
:1001C20006108616152086121B208616152086120A
:1001D200861086158616152086121B208611061497
:1001E20086161520861206108616152086121B20EA
:1001F20086161520861206148616152086121B20D6
:100202000610861615208612861506158614061403
:0C0212008616152086121B2042140800DE
:10021E0083120313C3010130F1000030F20080306D
:10022E00F000803072067002031D1F297108083C11
:10023E00031C3F29081927293508031D27292129C1
:10024E001215081D2E293508031D2E2928291211D5
:10025E00C30D431011083D3C031836294314910178
:10026E00350803193B293F29F10A0319F20A162909
:06027E004308F000080037
:100284005429803083120313CE006729C030CE0076
:1002940067299430CE006729D430CE006729803096
:1002A400CE006729831203134E08013A0319432928
:1002B4004E08023A031948294E08033A03194B29F8
:1002C4004E08043A03194E2951294F03F0004E08F1
:1002D400F0077008CE007008D3002F204210D1011F
:1002E4005108500784000008031980295108500759
:1002F40084000008D2008020D10A72294214080028
:10030400831603130811831208117530FC00E130C1
:10031400FD00FD0B8B29FC0B8B298316081503307C
:08032400FD00FD0B9329080008
:10032C0083120313CF01D0014E08F2004E08F300E4
:10033C00720884000008203A031DA9294F085004B4
:10034C00031DA929B6290130CF000030D000720856
:10035C0084000008F0007308840070088000F30A21
:10036C007208F100F20A710884000008003A031DBB
:08037C009E294E08F000080064
:1003840088208A110A128000840AC00A0319C10A4B
:08039400F003031DC22908005B
:10039C00831203131215081DD6293518D629D12915
:1003AC00121191010330FD00FD0BDA290819E12926
:1003BC003518E129DC290330FD00FD0BE329081D6C
:1003CC00EA293518EA29E5290330FD00FD0BEC2953
:0203DC00080017
:1003DE00253083120313A000A1012E30A200A30129
:1003EE002E30A400A5014530A6005230A700523091
:1003FE00A8004F30A900AA015430AB004530AC0024
:10040E004D30AD005030AE003D30AF002030B0006A
:10041E002030B1002030B2002030B300B401B5015D
:10042E004830B6004D30B7005430B8005930B900DE
:10043E003D30BA002030BB002030BC002030BD0063
:10044E002030BE00BF01063083169F000815C12064
:10045E000130D3002F200C30D3002F20013092001A
:10046E00FF3083169200C0308B008C143330FB00AB
:10047E00BB30FC00DF30FD00FD0B432AFC0B432A92
:10048E00FB0B432A000000008221CE213508031DFC
:10049E00CB2A0F217008CA000F217008CB000F2144
:1004AE007008CC000F217008CD003508031DCB2A33
:1004BE000130CE000130CF003630D0004221023064
:1004CE00CE000130CF002B30D00042214A08CE00A2
:1004DE004630CF008F204630CE0096210130CE0020
:1004EE000630CF007008D00042210130CE00083017
:1004FE00CF002230D00042214B08CE004630CF0034
:10050E008F204630CE0096210130CE000930CF002C
:10051E007008D00042210130CE000A30CF002030CA
:10052E00D00042214C08CE004630CF008F204630FE
:10053E00CE0096210230CE000630CF007008D000DB
:10054E0042210230CE000830CF002430D0004221AC
:10055E004D08CE004630CF008F204630CE0096217B
:10056E000230CE000930CF007008D0004221DF30BB
:10057E00C6004330C7002030C8000230CE000A301B
:10058E00CF004630D000422135080319D82A013059
:10059E00D3002F200130CE000130CF002630D00006
:1005AE004221B5012730FB000D30FC002630FD0046
:1005BE00FD0BDF2AFC0BDF2AFB0BDF2A00004B2A88
:0205CE00E72A1A
:02400E004A2F37
:00000001FF
