:02000000572A7D
:10000800FF00030E8301E4000A08E5008A01700876
:10001800A1007108A0000408A2008C1E42288C12BE
:100028005308A03EEF004C226F088400700880003F
:100038005308013C0318402801305302F000F10135
:10004800031CF1037008A03E840000080A3A031D4F
:1000580040285308A03E840000080D3A031D40289C
:100068005308013EF000F1010318F10A7008A03EA0
:100078008400800183168C128312D30A2108F000B1
:100088002008F1002208840065088A00640E8300B5
:06009800FF0E7F0E0900BF
:0C009E000000000000000000000008004E
:0E00AA00533083120313FD00FD0B592808008C
:1000B800243083120313FC00B530FD00FD0B6228C9
:0A00C800FC0B622800000000080095
:1000D2008316031398186F280000692883126E088C
:0400E2009900080079
:1000E60083120313EE1B792886117A2886156E1B58
:1000F6007E2806117F280615EE1A83288610842886
:1001060086146E1A882806108928061463188D2806
:1001160006168E28061286164F208612EE19952888
:100126008611962886156E199A2806119B2806159B
:10013600EE189F288610A02886146E18A42806108C
:10014600A52806146318A9280616AA2806128616D4
:100156004F208612631CB1285C20B2285520080067
:100166008312031363106B08EE00732063140800F8
:0E0176008312031362088A00610882000800E9
:1001840083120313ED016B0884000008EC006C0873
:10019400003A0319D7286C08EE006920ED0A6D08AF
:0C01A4006B0784000008EC00C92808006C
:1001B000831203136B08F2007208F000F20A700851
:1001C000840000080319E528DC286B087202F0009F
:0C01D0000130F002F101031CF1030800F3
:1001DC000029803083120313E6001329C030E60097
:1001EC0013299430E6001329D430E600132980300B
:1001FC00E6001329831203136608013A0319EF284A
:10020C006608023A0319F4286608033A0319F7281A
:10021C006608043A0319FA28FD286703F0006608FB
:10022C00F0077008E6007008EE0073206310E90117
:10023C00690868078400000803192C2969086807F5
:10024C0084000008EB00B320E90A1E29631408009F
:10025C0083160313861206120610861006118611D9
:10026C0083128612061286110611861006105C2067
:10027C005C205C208614061486164F2086125C20A7
:10028C0086164F2086125C2086164F2086125C2024
:10029C00061086164F2086125C2086164F2086127A
:1002AC008610861586164F2086125C208611061441
:1002BC0086164F208612061086164F2086125C205A
:1002CC0086164F208612061486164F2086125C2046
:1002DC00061086164F2086128615061586140614EF
:0C02EC0086164F2086125C206314080068
:1002F80083120313EA016A086607F0006708031807
:10030800013EF1007008E1007108E200BB208A118B
:100318000A12F1007108003A0319AA296A08C13EB5
:10032800F2006A086607F00067080318013EF1004A
:100338007008E1007108E200BB208A110A12F0007F
:100348007208840070088000EA0A7F296A08C13EA2
:1003580084008001EA016A086807F0006908031848
:10036800013EF1007008E1007108E200BB208A112B
:100378000A12F1007108003A0319DA296A08D03E16
:10038800F2006A086807F00069080318013EF100E6
:100398007008E1007108E200BB208A110A12F0001F
:1003A8007208840070088000EA0AAF296A08D03E03
:1003B800840080012310EA0114306A020318EA2934
:1003C8006A08A03E84008001EA0AE029D301831666
:1003D8008C16C1308312EB00C2200A30EE0069206F
:1003E8000D30FB00AF30FC00B630FD00FD0BFA29E4
:1003F800FC0BFA29FB0BFA290000EA01D030EB00CC
:10040800D8208030F200803071067202031D0E2A57
:1004180070086A0203181F2A6A08A03E84000008B0
:10042800F1006A08D03E84007108000603191D2AED
:100438002314EA0A022A2318DE29D301EA01143018
:100448006A0203182D2A6A08A03E84008001EA0A7D
:08045800232A83168C1608000C
:10046000831603139816903083129800831687170B
:10047000071383128C1E3F2A1A08F000392A08003D
:10048000BB208A110A128000840AE10A0319E20AD9
:08049000F003031D402A0800DF
:10049800831203131A08F100981C542A181218160C
:0604A8007108F0000800DD
:1004AE007825493083160313B4006E30B5006930D9
:1004BE00B6007430B7006930B8006130B9006C30E6
:1004CE00BA006930BB007A30BC006930BD006E30B6
:1004DE00BE006730BF00C00107309F00C0308B00E8
:1004EE0020308C0081309900181530222E210130D9
:1004FE00EE0073200C30EE0073200130E600013068
:10050E00E700B430E800EE200330FB008A30FC0038
:10051E005530FD00FD0B912AFC0B912AFB0B912A05
:10052E0000000000FB30E6000430E700F230E80087
:10053E000430E9007C210D308312E6000530E7001F
:10054E000430E8000530E9007C213330FB00BB307D
:10055E00FC00DF30FD00FD0BB22AFC0BB22AFB0BB8
:10056E00B22A000000006F308312E6000530E7006B
:10057E000330E8000030E9007C21E9308312E60008
:10058E000430E700CE30E8000430E9007C21C530AD
:10059E008312E6000430E700E030E8000430E900A2
:1005AE007C21D7308312E6000430E7004C30E8009F
:1005BE000530E9007C2143308312E6000530E70068
:1005CE005530E8000530E9007C215E308312E600EC
:1005DE000530E7003A30E8000530E9007C2116309E
:1005EE008312E6000530E7002830E8000530E90008
:1005FE007C2131308312E6000530E7001F30E80021
:10060E000530E9007C21BC308312E6000430E7009F
:10061E005930E8000430E9007C2150308312E600A6
:10062E000430E7004730E8000430E9007C21163042
:10063E008312E6000430E7000830E8000430E900D9
:10064E007C213E308312E6000430E7002330E800C0
:10065E000430E9007C212C308312E6000430E700E0
:10066E003530E8000430E9007C2162308312E60068
:10067E000430E700A130E8000430E9007C21983016
:10068E008312E6000430E700B330E8000430E900DE
:10069E007C21AA308312E6000430E7008F30E80098
:1006AE000430E9007C2101308312EE00732001300A
:1006BE00E6000130E7005430E800EE207430E6002A
:1006CE000430E7006B30E8000430E9007C21E530AF
:1006DE00FB004930FC00F530FD00FD0B742BFC0BCC
:1006EE00742BFB0B742B77308312E6000530E7007A
:1006FE008630E8000430E9007C2101308312EE00E0
:10070E0073200130E6000130E7002F30E800EE20C4
:10071E000230E6000130E7002430E800EE207D30A4
:10072E00E6000430E7006730E8000530E9007C2180
:10073E0001308312EE0073203B30EB00C2200D30EF
:10074E00EE0069200A30EE0069200130E60001302B
:10075E00E7004730E800EE201A30FB005E30FC0068
:10076E006E30FD00FD0BB92BFC0BB92BFB0BB92B1F
:0C077E0000000130EE007320A32BC42B00
:100AF000233084003E3083120313F000CA30E1003B
:080B00000330E200402208006E
:020006000034C4
:0207940000342F
:1007960043346F346E346E34653463347434693480
:0607A6006F346E340034D4
:1007AC00573461346934743469346E3467342034AA
:0807BC0066346F34723400341E
:1007C400483465346C346C346F34203477346F348B
:0807D40072346C34643400340B
:1007DC00483465346C346C346F34203477346F3473
:0807EC0072346C3464340034F3
:0207F4000034CF
:1007F60053346534613472346334683469346E3426
:0A08060067342E342E342E340034F3
:100810004F344B342B345334653474343A343134DC
:0C08200038343434363432343034003490
:10082C00413454342B34503449344E34313438340C
:0A083C0034343634323430340034E2
:100846004F344B342B345334653474343A343134A6
:0208560000346C
:10085800413454342B3441344C344C344F343034D8
:0208680000345A
:10086A004F344B342B345334653474343A34303483
:02087A00003448
:10087C00413454342B3449344D344D3445343134B3
:02088C00003436
:10088E004F344B342B345334653474343A3431345E
:02089E00003424
:1008A000413454342B345434593450344534313475
:0208B000003412
:1008B2004F344B342B345334653474343A3431343A
:0208C200003400
:1008C400413454342B345334433441344E34393466
:0208D4000034EE
:1008D6004F344B342B344434493453344334533437
:0208E6000034DC
:1008E800413454342B3444344934533443343F343E
:0208F8000034CA
:1008FA00413454342B3443344F344E344E34303430
:02090A000034B7
:10090C004F344B342B34443449345334433445340E
:02091C000034A5
:10091E004F344B342B3452344534533445345434E1
:02092E00003493
:10093000413454342B34533448344F3457343034E6
:02094000003481
:100942004F344B342B345334653474343A343934A1
:0209520000346F
:10095400413454342B3452344534533445345434B0
:0209640000345D
:100966004F344B342B345334653474343A34303486
:0209760000344B
:10097800413454342B3452344F344C3445343134AC
:02098800003439
:10098A00413454342B3442344134553444343234AF
:02099A00003427
:10099C004F344B342B345334653474343A34303450
:0209AC00003415
:1009AE00413454342B34503441345234493430347D
:0209BE00003403
:1009C0004F344B342B345334653474343A3432342A
:0209D0000034F1
:1009D200413454342B345334413456344534303456
:0209E2000034DF
:1009E4004F344B342B345334653474343A34313407
:0209F4000034CD
:1009F600413454342B3452344F344C34453431342E
:020A06000034BA
:100A08004F344B342B3452344534533445345434F6
:020A18000034A8
:100A1A00413454342B3452344534533445345434E9
:020A2A00003496
:100A2C00413454342B344E344F34543449343134EF
:020A3C00003484
:100A3E004F344B342B345334653474343A343134AC
:020A4E00003472
:100A50004F344B342B345334653474343A3431349A
:020A6000003460
:100A6200413454342B344D344F34443445343134CE
:020A720000344E
:100A74004F344B342B345334653474343A34333474
:020A840000343C
:100A8600413454342B34533454344F34503430348A
:020A960000342A
:100A98004F344B342B345334653474343A34303453
:020AA800003418
:100AAA004F344B342B345334653474343A34303441
:020ABA00003406
:100ABC00413454342B34443445344C344934333479
:020ACC000034F4
:100ACE004F344B342B3443344F344E344E34003485
:100ADE00413454342B34443452344F345034003473
:020AEE000034D2
:02400E004A2F37
:00000001FF
