:1000000066EF00F00000000000EF00F000000000CC
:0A0010000000000000000000F3D71C
:10001C003F0E206E060E216E5B0E226E4F0E236E6F
:10002C00660E246E6D0E256E7D0E266E070E276EE7
:10003C007F0E286E6F0E296E849084928494829E1B
:10004C00200E1C24E96E000E1D20EA6EEECF83FFFD
:10005C00000E1F1802E1010E1E18D8B48480000E89
:10006C001F1802E1020E1E18D8B48482000E1F184D
:10007C0002E1030E1E18D8B48484000E1F1802E18E
:0A008C00040E1E18D8B4828E120074
:10009600086A096A100E0C6E0134083609360450D7
:1000A600085E0550D8A0053C095ED8B007D00450BC
:1000B60008260550D8B0053C0926D89000360136EA
:0600C6000C2EEAD7120027
:1000CC00D20E186E040E196E0F0EC16E956A9690B4
:1000DC0096929694949EE80E046E030E056E18C0CC
:1000EC0000F019C001F0D1DF00C015F0E80E046E6D
:1000FC00030E056E18C000F019C001F0C6DF08C071
:10010C0000F009C001F000C01AF001C01BF0640E31
:10011C00046E000E056E1AC000F01BC001F0B5DFB6
:10012C0000C016F0640E046E000E056E1AC000F0CE
:10013C001BC001F0AADF08C000F009C001F000C02C
:10014C001AF001C01BF00A0E046E000E056E1AC0E8
:10015C0000F01BC001F099DF00C017F00A0E046E0E
:10016C00000E056E1AC000F01BC001F08EDF08C037
:10017C0000F009C001F000C01CF0000E1D6E010E55
:10018C001E6E000E1F6E44DFD00E0C6EC90E0D6E6F
:10019C000D2EFED70C2EFCD70000000017C01CF053
:1001AC00000E1D6E020E1E6E000E1F6E31DFD00E85
:1001BC000C6EC90E0D6E0D2EFED70C2EFCD700004A
:1001CC00000016C01CF0000E1D6E030E1E6E000EFD
:1001DC001F6E1EDFD00E0C6EC90E0D6E0D2EFED7CF
:1001EC000C2EFCD70000000015C01CF0000E1D6E7C
:1001FC00040E1E6E000E1F6E0BDFD00E0C6EC90EA1
:10020C000D6E0D2EFED70C2EFCD70000000063D710
:02021C00FFD70A
:020000040030CA
:0D000100021F1EFF8381FF0FC00FE00F40A4
:00000001FF
